{
  "abi": [
    {
      "type": "constructor",
      "inputs": [
        {
          "name": "_priceFeed",
          "type": "address",
          "internalType": "address"
        },
        {
          "name": "_router",
          "type": "address",
          "internalType": "address"
        },
        {
          "name": "_clearingHouse",
          "type": "address",
          "internalType": "address"
        }
      ],
      "stateMutability": "nonpayable"
    },
    {
      "type": "function",
      "name": "addLiquidity",
      "inputs": [
        {
          "name": "maker",
          "type": "address",
          "internalType": "address"
        },
        {
          "name": "notional",
          "type": "uint256",
          "internalType": "uint256"
        }
      ],
      "outputs": [
        {
          "name": "shares",
          "type": "uint256",
          "internalType": "uint256"
        },
        {
          "name": "quoteAmount",
          "type": "uint256",
          "internalType": "uint256"
        },
        {
          "name": "baseAmount",
          "type": "uint256",
          "internalType": "uint256"
        }
      ],
      "stateMutability": "nonpayable"
    },
    {
      "type": "function",
      "name": "cancelOwnershipHandover",
      "inputs": [],
      "outputs": [],
      "stateMutability": "payable"
    },
    {
      "type": "function",
      "name": "clearingHouse",
      "inputs": [],
      "outputs": [
        {
          "name": "",
          "type": "address",
          "internalType": "address"
        }
      ],
      "stateMutability": "view"
    },
    {
      "type": "function",
      "name": "completeOwnershipHandover",
      "inputs": [
        {
          "name": "pendingOwner",
          "type": "address",
          "internalType": "address"
        }
      ],
      "outputs": [],
      "stateMutability": "payable"
    },
    {
      "type": "function",
      "name": "getBaseToFill",
      "inputs": [
        {
          "name": "targetPrice",
          "type": "uint256",
          "internalType": "uint256"
        }
      ],
      "outputs": [
        {
          "name": "",
          "type": "uint256",
          "internalType": "uint256"
        }
      ],
      "stateMutability": "view"
    },
    {
      "type": "function",
      "name": "getBaseToFillWithRemaining",
      "inputs": [
        {
          "name": "targetPrice",
          "type": "uint256",
          "internalType": "uint256"
        }
      ],
      "outputs": [
        {
          "name": "baseAmount",
          "type": "uint256",
          "internalType": "uint256"
        },
        {
          "name": "remaining",
          "type": "bool",
          "internalType": "bool"
        }
      ],
      "stateMutability": "view"
    },
    {
      "type": "function",
      "name": "getBaseValue",
      "inputs": [
        {
          "name": "dirOfQuote",
          "type": "uint8",
          "internalType": "enum Dir"
        },
        {
          "name": "quoteAmount",
          "type": "uint256",
          "internalType": "uint256"
        }
      ],
      "outputs": [
        {
          "name": "baseAmount",
          "type": "uint256",
          "internalType": "uint256"
        },
        {
          "name": "remainingQuote",
          "type": "uint256",
          "internalType": "uint256"
        }
      ],
      "stateMutability": "view"
    },
    {
      "type": "function",
      "name": "getBounds",
      "inputs": [],
      "outputs": [
        {
          "name": "",
          "type": "uint256",
          "internalType": "uint256"
        },
        {
          "name": "",
          "type": "uint256",
          "internalType": "uint256"
        }
      ],
      "stateMutability": "view"
    },
    {
      "type": "function",
      "name": "getFeeGrowth",
      "inputs": [],
      "outputs": [
        {
          "name": "",
          "type": "uint256",
          "internalType": "uint256"
        }
      ],
      "stateMutability": "view"
    },
    {
      "type": "function",
      "name": "getIndexPrice",
      "inputs": [],
      "outputs": [
        {
          "name": "",
          "type": "uint256",
          "internalType": "uint256"
        }
      ],
      "stateMutability": "view"
    },
    {
      "type": "function",
      "name": "getLowerBound",
      "inputs": [],
      "outputs": [
        {
          "name": "",
          "type": "uint256",
          "internalType": "uint256"
        }
      ],
      "stateMutability": "view"
    },
    {
      "type": "function",
      "name": "getMakerFundingPayment",
      "inputs": [
        {
          "name": "maker",
          "type": "address",
          "internalType": "address"
        }
      ],
      "outputs": [
        {
          "name": "fundingPayment",
          "type": "int256",
          "internalType": "int256"
        }
      ],
      "stateMutability": "view"
    },
    {
      "type": "function",
      "name": "getMakerImpermanentPosition",
      "inputs": [
        {
          "name": "maker",
          "type": "address",
          "internalType": "address"
        }
      ],
      "outputs": [
        {
          "name": "size",
          "type": "int256",
          "internalType": "int256"
        },
        {
          "name": "openNotional",
          "type": "uint256",
          "internalType": "uint256"
        }
      ],
      "stateMutability": "view"
    },
    {
      "type": "function",
      "name": "getMakerPosition",
      "inputs": [
        {
          "name": "maker",
          "type": "address",
          "internalType": "address"
        }
      ],
      "outputs": [
        {
          "name": "",
          "type": "tuple",
          "internalType": "struct MakerPosition",
          "components": [
            {
              "name": "quote",
              "type": "uint256",
              "internalType": "uint256"
            },
            {
              "name": "base",
              "type": "uint256",
              "internalType": "uint256"
            },
            {
              "name": "shares",
              "type": "uint256",
              "internalType": "uint256"
            },
            {
              "name": "positionCache",
              "type": "int256",
              "internalType": "int256"
            },
            {
              "name": "lastFeeGrowth",
              "type": "uint256",
              "internalType": "uint256"
            },
            {
              "name": "lastPremiumFraction",
              "type": "int256",
              "internalType": "int256"
            },
            {
              "name": "lastPremiumFractionPerShare",
              "type": "int256",
              "internalType": "int256"
            },
            {
              "name": "lastSizeOffsetPerShare",
              "type": "int256",
              "internalType": "int256"
            },
            {
              "name": "blockNumber",
              "type": "uint256",
              "internalType": "uint256"
            }
          ]
        }
      ],
      "stateMutability": "view"
    },
    {
      "type": "function",
      "name": "getMarkPrice",
      "inputs": [],
      "outputs": [
        {
          "name": "",
          "type": "uint256",
          "internalType": "uint256"
        }
      ],
      "stateMutability": "view"
    },
    {
      "type": "function",
      "name": "getMarkPriceAfterClose",
      "inputs": [
        {
          "name": "dirOfBase",
          "type": "uint8",
          "internalType": "enum Dir"
        },
        {
          "name": "baseAmount",
          "type": "uint256",
          "internalType": "uint256"
        }
      ],
      "outputs": [
        {
          "name": "",
          "type": "uint256",
          "internalType": "uint256"
        }
      ],
      "stateMutability": "view"
    },
    {
      "type": "function",
      "name": "getMarkPriceAfterOpen",
      "inputs": [
        {
          "name": "dirOfQuote",
          "type": "uint8",
          "internalType": "enum Dir"
        },
        {
          "name": "quoteAmount",
          "type": "uint256",
          "internalType": "uint256"
        }
      ],
      "outputs": [
        {
          "name": "",
          "type": "uint256",
          "internalType": "uint256"
        }
      ],
      "stateMutability": "view"
    },
    {
      "type": "function",
      "name": "getMaxBaseToFill",
      "inputs": [
        {
          "name": "dirOfBase",
          "type": "uint8",
          "internalType": "enum Dir"
        }
      ],
      "outputs": [
        {
          "name": "",
          "type": "uint256",
          "internalType": "uint256"
        }
      ],
      "stateMutability": "view"
    },
    {
      "type": "function",
      "name": "getMaxQuoteToFill",
      "inputs": [
        {
          "name": "dirOfQuote",
          "type": "uint8",
          "internalType": "enum Dir"
        }
      ],
      "outputs": [
        {
          "name": "",
          "type": "uint256",
          "internalType": "uint256"
        }
      ],
      "stateMutability": "view"
    },
    {
      "type": "function",
      "name": "getPendingMakerFeeAndFundingPayment",
      "inputs": [
        {
          "name": "maker",
          "type": "address",
          "internalType": "address"
        }
      ],
      "outputs": [
        {
          "name": "fee",
          "type": "uint256",
          "internalType": "uint256"
        },
        {
          "name": "fundingPayment",
          "type": "int256",
          "internalType": "int256"
        }
      ],
      "stateMutability": "view"
    },
    {
      "type": "function",
      "name": "getPendingMakerFees",
      "inputs": [
        {
          "name": "maker",
          "type": "address",
          "internalType": "address"
        }
      ],
      "outputs": [
        {
          "name": "",
          "type": "uint256",
          "internalType": "uint256"
        }
      ],
      "stateMutability": "view"
    },
    {
      "type": "function",
      "name": "getQuoteToFill",
      "inputs": [
        {
          "name": "targetPrice",
          "type": "uint256",
          "internalType": "uint256"
        }
      ],
      "outputs": [
        {
          "name": "",
          "type": "uint256",
          "internalType": "uint256"
        }
      ],
      "stateMutability": "view"
    },
    {
      "type": "function",
      "name": "getQuoteToFillWithRemaining",
      "inputs": [
        {
          "name": "targetPrice",
          "type": "uint256",
          "internalType": "uint256"
        }
      ],
      "outputs": [
        {
          "name": "quoteAmount",
          "type": "uint256",
          "internalType": "uint256"
        },
        {
          "name": "remaining",
          "type": "bool",
          "internalType": "bool"
        }
      ],
      "stateMutability": "view"
    },
    {
      "type": "function",
      "name": "getQuoteValue",
      "inputs": [
        {
          "name": "dirOfBase",
          "type": "uint8",
          "internalType": "enum Dir"
        },
        {
          "name": "baseAmount",
          "type": "uint256",
          "internalType": "uint256"
        }
      ],
      "outputs": [
        {
          "name": "quoteAmount",
          "type": "uint256",
          "internalType": "uint256"
        },
        {
          "name": "remainingBase",
          "type": "uint256",
          "internalType": "uint256"
        }
      ],
      "stateMutability": "view"
    },
    {
      "type": "function",
      "name": "getRealReserves",
      "inputs": [],
      "outputs": [
        {
          "name": "quoteReserve",
          "type": "uint256",
          "internalType": "uint256"
        },
        {
          "name": "baseReserve",
          "type": "uint256",
          "internalType": "uint256"
        }
      ],
      "stateMutability": "view"
    },
    {
      "type": "function",
      "name": "getReserves",
      "inputs": [],
      "outputs": [
        {
          "name": "quoteReserve",
          "type": "uint256",
          "internalType": "uint256"
        },
        {
          "name": "baseReserve",
          "type": "uint256",
          "internalType": "uint256"
        }
      ],
      "stateMutability": "view"
    },
    {
      "type": "function",
      "name": "getReservesAndK",
      "inputs": [],
      "outputs": [
        {
          "name": "quoteReserve",
          "type": "uint256",
          "internalType": "uint256"
        },
        {
          "name": "baseReserve",
          "type": "uint256",
          "internalType": "uint256"
        },
        {
          "name": "_k",
          "type": "uint256",
          "internalType": "uint256"
        }
      ],
      "stateMutability": "view"
    },
    {
      "type": "function",
      "name": "getReservesKAndMaxPrice",
      "inputs": [
        {
          "name": "buy",
          "type": "bool",
          "internalType": "bool"
        }
      ],
      "outputs": [
        {
          "name": "quoteReserve",
          "type": "uint256",
          "internalType": "uint256"
        },
        {
          "name": "baseReserve",
          "type": "uint256",
          "internalType": "uint256"
        },
        {
          "name": "_k",
          "type": "uint256",
          "internalType": "uint256"
        },
        {
          "name": "maxPrice",
          "type": "uint256",
          "internalType": "uint256"
        }
      ],
      "stateMutability": "view"
    },
    {
      "type": "function",
      "name": "getShareValue",
      "inputs": [
        {
          "name": "shares",
          "type": "uint256",
          "internalType": "uint256"
        }
      ],
      "outputs": [
        {
          "name": "quote",
          "type": "uint256",
          "internalType": "uint256"
        },
        {
          "name": "base",
          "type": "uint256",
          "internalType": "uint256"
        }
      ],
      "stateMutability": "view"
    },
    {
      "type": "function",
      "name": "getSqrtBounds",
      "inputs": [],
      "outputs": [
        {
          "name": "",
          "type": "uint256",
          "internalType": "uint256"
        },
        {
          "name": "",
          "type": "uint256",
          "internalType": "uint256"
        }
      ],
      "stateMutability": "view"
    },
    {
      "type": "function",
      "name": "getTotalSupply",
      "inputs": [],
      "outputs": [
        {
          "name": "",
          "type": "uint256",
          "internalType": "uint256"
        }
      ],
      "stateMutability": "view"
    },
    {
      "type": "function",
      "name": "getUpperBound",
      "inputs": [],
      "outputs": [
        {
          "name": "",
          "type": "uint256",
          "internalType": "uint256"
        }
      ],
      "stateMutability": "view"
    },
    {
      "type": "function",
      "name": "initialize",
      "inputs": [
        {
          "name": "_owner",
          "type": "address",
          "internalType": "address"
        }
      ],
      "outputs": [],
      "stateMutability": "nonpayable"
    },
    {
      "type": "function",
      "name": "owner",
      "inputs": [],
      "outputs": [
        {
          "name": "result",
          "type": "address",
          "internalType": "address"
        }
      ],
      "stateMutability": "view"
    },
    {
      "type": "function",
      "name": "ownershipHandoverExpiresAt",
      "inputs": [
        {
          "name": "pendingOwner",
          "type": "address",
          "internalType": "address"
        }
      ],
      "outputs": [
        {
          "name": "result",
          "type": "uint256",
          "internalType": "uint256"
        }
      ],
      "stateMutability": "view"
    },
    {
      "type": "function",
      "name": "ownershipHandoverValidFor",
      "inputs": [],
      "outputs": [
        {
          "name": "",
          "type": "uint64",
          "internalType": "uint64"
        }
      ],
      "stateMutability": "view"
    },
    {
      "type": "function",
      "name": "priceFeed",
      "inputs": [],
      "outputs": [
        {
          "name": "",
          "type": "address",
          "internalType": "contract IPriceFeed"
        }
      ],
      "stateMutability": "view"
    },
    {
      "type": "function",
      "name": "removeLiquidity",
      "inputs": [
        {
          "name": "maker",
          "type": "address",
          "internalType": "address"
        },
        {
          "name": "shares",
          "type": "uint256",
          "internalType": "uint256"
        },
        {
          "name": "liquidation",
          "type": "bool",
          "internalType": "bool"
        }
      ],
      "outputs": [
        {
          "name": "size",
          "type": "int256",
          "internalType": "int256"
        },
        {
          "name": "openNotional",
          "type": "uint256",
          "internalType": "uint256"
        },
        {
          "name": "fullRemoval",
          "type": "bool",
          "internalType": "bool"
        }
      ],
      "stateMutability": "nonpayable"
    },
    {
      "type": "function",
      "name": "renounceOwnership",
      "inputs": [],
      "outputs": [],
      "stateMutability": "payable"
    },
    {
      "type": "function",
      "name": "requestOwnershipHandover",
      "inputs": [],
      "outputs": [],
      "stateMutability": "payable"
    },
    {
      "type": "function",
      "name": "router",
      "inputs": [],
      "outputs": [
        {
          "name": "",
          "type": "address",
          "internalType": "address"
        }
      ],
      "stateMutability": "view"
    },
    {
      "type": "function",
      "name": "setBounds",
      "inputs": [
        {
          "name": "upper",
          "type": "uint256",
          "internalType": "uint256"
        },
        {
          "name": "lower",
          "type": "uint256",
          "internalType": "uint256"
        }
      ],
      "outputs": [],
      "stateMutability": "nonpayable"
    },
    {
      "type": "function",
      "name": "settleMakerFundingAndFees",
      "inputs": [
        {
          "name": "maker",
          "type": "address",
          "internalType": "address"
        }
      ],
      "outputs": [
        {
          "name": "feeReceived",
          "type": "uint256",
          "internalType": "uint256"
        },
        {
          "name": "fundingPayment",
          "type": "int256",
          "internalType": "int256"
        }
      ],
      "stateMutability": "nonpayable"
    },
    {
      "type": "function",
      "name": "swapClose",
      "inputs": [
        {
          "name": "dirOfBase",
          "type": "uint8",
          "internalType": "enum Dir"
        },
        {
          "name": "baseAmount",
          "type": "uint256",
          "internalType": "uint256"
        }
      ],
      "outputs": [
        {
          "name": "mark",
          "type": "uint256",
          "internalType": "uint256"
        },
        {
          "name": "remainingBase",
          "type": "uint256",
          "internalType": "uint256"
        },
        {
          "name": "quoteAmount",
          "type": "uint256",
          "internalType": "uint256"
        }
      ],
      "stateMutability": "nonpayable"
    },
    {
      "type": "function",
      "name": "swapOpen",
      "inputs": [
        {
          "name": "dirOfQuote",
          "type": "uint8",
          "internalType": "enum Dir"
        },
        {
          "name": "quoteAmount",
          "type": "uint256",
          "internalType": "uint256"
        }
      ],
      "outputs": [
        {
          "name": "mark",
          "type": "uint256",
          "internalType": "uint256"
        },
        {
          "name": "remainingQuote",
          "type": "uint256",
          "internalType": "uint256"
        },
        {
          "name": "baseAmount",
          "type": "uint256",
          "internalType": "uint256"
        }
      ],
      "stateMutability": "nonpayable"
    },
    {
      "type": "function",
      "name": "transferOwnership",
      "inputs": [
        {
          "name": "newOwner",
          "type": "address",
          "internalType": "address"
        }
      ],
      "outputs": [],
      "stateMutability": "payable"
    },
    {
      "type": "function",
      "name": "updatePremiumFractionPerShare",
      "inputs": [
        {
          "name": "premiumFraction",
          "type": "int256",
          "internalType": "int256"
        }
      ],
      "outputs": [],
      "stateMutability": "nonpayable"
    },
    {
      "type": "event",
      "name": "CapChanged",
      "inputs": [
        {
          "name": "maxSize",
          "type": "uint256",
          "indexed": false,
          "internalType": "uint256"
        },
        {
          "name": "openInterestNotionalCap",
          "type": "uint256",
          "indexed": false,
          "internalType": "uint256"
        }
      ],
      "anonymous": false
    },
    {
      "type": "event",
      "name": "FundingPeriodChanged",
      "inputs": [
        {
          "name": "fundingPeriod",
          "type": "uint256",
          "indexed": false,
          "internalType": "uint256"
        }
      ],
      "anonymous": false
    },
    {
      "type": "event",
      "name": "FundingRateUpdated",
      "inputs": [
        {
          "name": "fundingRate",
          "type": "int256",
          "indexed": false,
          "internalType": "int256"
        },
        {
          "name": "price",
          "type": "uint256",
          "indexed": false,
          "internalType": "uint256"
        }
      ],
      "anonymous": false
    },
    {
      "type": "event",
      "name": "Initialized",
      "inputs": [
        {
          "name": "version",
          "type": "uint8",
          "indexed": false,
          "internalType": "uint8"
        }
      ],
      "anonymous": false
    },
    {
      "type": "event",
      "name": "MakerPositionChanged",
      "inputs": [
        {
          "name": "maker",
          "type": "address",
          "indexed": true,
          "internalType": "address"
        },
        {
          "name": "shareDelta",
          "type": "int256",
          "indexed": false,
          "internalType": "int256"
        },
        {
          "name": "remainingShares",
          "type": "uint256",
          "indexed": false,
          "internalType": "uint256"
        },
        {
          "name": "realizedFee",
          "type": "uint256",
          "indexed": false,
          "internalType": "uint256"
        },
        {
          "name": "fundingPayment",
          "type": "int256",
          "indexed": false,
          "internalType": "int256"
        }
      ],
      "anonymous": false
    },
    {
      "type": "event",
      "name": "NewPriceSnapshot",
      "inputs": [
        {
          "name": "markPrice",
          "type": "uint256",
          "indexed": false,
          "internalType": "uint256"
        },
        {
          "name": "timestamp",
          "type": "uint256",
          "indexed": false,
          "internalType": "uint256"
        }
      ],
      "anonymous": false
    },
    {
      "type": "event",
      "name": "OwnershipHandoverCanceled",
      "inputs": [
        {
          "name": "pendingOwner",
          "type": "address",
          "indexed": true,
          "internalType": "address"
        }
      ],
      "anonymous": false
    },
    {
      "type": "event",
      "name": "OwnershipHandoverRequested",
      "inputs": [
        {
          "name": "pendingOwner",
          "type": "address",
          "indexed": true,
          "internalType": "address"
        }
      ],
      "anonymous": false
    },
    {
      "type": "event",
      "name": "OwnershipTransferred",
      "inputs": [
        {
          "name": "oldOwner",
          "type": "address",
          "indexed": true,
          "internalType": "address"
        },
        {
          "name": "newOwner",
          "type": "address",
          "indexed": true,
          "internalType": "address"
        }
      ],
      "anonymous": false
    },
    {
      "type": "event",
      "name": "ReservesUpdated",
      "inputs": [
        {
          "name": "quoteReserve",
          "type": "uint256",
          "indexed": false,
          "internalType": "uint256"
        },
        {
          "name": "baseReserve",
          "type": "uint256",
          "indexed": false,
          "internalType": "uint256"
        }
      ],
      "anonymous": false
    },
    {
      "type": "event",
      "name": "SwapClose",
      "inputs": [
        {
          "name": "dirOfBase",
          "type": "uint8",
          "indexed": false,
          "internalType": "enum Dir"
        },
        {
          "name": "quoteAmount",
          "type": "uint256",
          "indexed": false,
          "internalType": "uint256"
        },
        {
          "name": "baseAmount",
          "type": "uint256",
          "indexed": false,
          "internalType": "uint256"
        }
      ],
      "anonymous": false
    },
    {
      "type": "event",
      "name": "SwapOpen",
      "inputs": [
        {
          "name": "dirOfQuote",
          "type": "uint8",
          "indexed": false,
          "internalType": "enum Dir"
        },
        {
          "name": "quoteAmount",
          "type": "uint256",
          "indexed": false,
          "internalType": "uint256"
        },
        {
          "name": "baseAmount",
          "type": "uint256",
          "indexed": false,
          "internalType": "uint256"
        }
      ],
      "anonymous": false
    },
    {
      "type": "event",
      "name": "TickSpacingChanged",
      "inputs": [
        {
          "name": "tickSpacing",
          "type": "uint256",
          "indexed": false,
          "internalType": "uint256"
        }
      ],
      "anonymous": false
    },
    {
      "type": "event",
      "name": "TradeLimitRatioChanged",
      "inputs": [
        {
          "name": "ratio",
          "type": "uint256",
          "indexed": false,
          "internalType": "uint256"
        }
      ],
      "anonymous": false
    },
    {
      "type": "error",
      "name": "BAD_DEBT",
      "inputs": []
    },
    {
      "type": "error",
      "name": "BASE_RESERVE_IS_ZERO",
      "inputs": []
    },
    {
      "type": "error",
      "name": "BOUNDS_DONT_MATCH",
      "inputs": []
    },
    {
      "type": "error",
      "name": "FUNDING_INTERVAL_NOT_PASSED",
      "inputs": []
    },
    {
      "type": "error",
      "name": "INSUFFICIENT_RESERVES",
      "inputs": []
    },
    {
      "type": "error",
      "name": "INSUFFICIENT_SHARES",
      "inputs": []
    },
    {
      "type": "error",
      "name": "INVALID_FUNDING_PERIOD",
      "inputs": []
    },
    {
      "type": "error",
      "name": "LEVERAGE_TOO_HIGH",
      "inputs": []
    },
    {
      "type": "error",
      "name": "MAKER_LIQUIDATABLE",
      "inputs": []
    },
    {
      "type": "error",
      "name": "MAKER_NOT_LIQUIDATABLE",
      "inputs": []
    },
    {
      "type": "error",
      "name": "NOT_ROUTER",
      "inputs": []
    },
    {
      "type": "error",
      "name": "NewOwnerIsZeroAddress",
      "inputs": []
    },
    {
      "type": "error",
      "name": "NoHandoverRequest",
      "inputs": []
    },
    {
      "type": "error",
      "name": "OVER_MAX_BASE",
      "inputs": []
    },
    {
      "type": "error",
      "name": "OVER_MAX_QUOTE",
      "inputs": []
    },
    {
      "type": "error",
      "name": "OVER_TRADING_LIMIT",
      "inputs": []
    },
    {
      "type": "error",
      "name": "PRICE_OVER_FLUCTUATION_LIMIT",
      "inputs": []
    },
    {
      "type": "error",
      "name": "QUOTE_RESERVE_IS_ZERO",
      "inputs": []
    },
    {
      "type": "error",
      "name": "SANDWICH",
      "inputs": []
    },
    {
      "type": "error",
      "name": "UNDER_MIN_BASE",
      "inputs": []
    },
    {
      "type": "error",
      "name": "UNDER_MIN_QUOTE",
      "inputs": []
    },
    {
      "type": "error",
      "name": "UNDER_MIN_SHARES",
      "inputs": []
    },
    {
      "type": "error",
      "name": "Unauthorized",
      "inputs": []
    },
    {
      "type": "error",
      "name": "ZERO_CLOSE",
      "inputs": []
    },
    {
      "type": "error",
      "name": "ZERO_LIQUIDITY",
      "inputs": []
    },
    {
      "type": "error",
      "name": "ZERO_OPEN",
      "inputs": []
    }
  ],
  "bytecode": {
    "object": "0x60e06040523480156200001157600080fd5b5060405162002fe438038062002fe483398101604081905262000034916200013e565b6001600160a01b0380841660805282811660a052811660c0526200005762000060565b50505062000188565b600054610100900460ff1615620000cd5760405162461bcd60e51b815260206004820152602760248201527f496e697469616c697a61626c653a20636f6e747261637420697320696e697469604482015266616c697a696e6760c81b606482015260840160405180910390fd5b60005460ff908116146200011f576000805460ff191660ff9081179091556040519081527f7f26b83ff96e1f2b6a682f133852f6798a09c465da95921460cefb38474024989060200160405180910390a15b565b80516001600160a01b03811681146200013957600080fd5b919050565b6000806000606084860312156200015457600080fd5b6200015f8462000121565b92506200016f6020850162000121565b91506200017f6040850162000121565b90509250925092565b60805160a05160c051612ddf62000205600039600081816102bd01526127a40152600081816107e90152818161090f01528181610dbf01528181610fb90152818161128f015281816113bd01528181611637015281816120ec015281816124440152818161253201526127d1015260006105490152612ddf6000f3fe6080604052600436106102175760003560e01c80629a7ade1461021c578063017add881461025357806306a7643c146102815780630902f1ac146102965780630af96800146102ab5780630ee28a88146102ec5780631483b6021461032957806314cc2116146103415780631de0f0951461036157806322c180b514610376578063256929621461038b5780632faee2ba146103955780633911138f146103ca5780633cc87a20146103ea578063435e13bf146104025780634ae91523146104225780634d85468b1461044257806354d1f13d14610462578063566887001461046a57806358c0994a146104a55780635c220aa1146104ba57806360409632146104da57806365f66425146104ef5780636edd75901461050f578063715018a61461052f578063741bef1a1461053757806375011b9c1461056b5780637d053c5f1461058b5780638da5cb5b146105ab578063a875b5e2146105c4578063bb825160146105e4578063c24e385914610604578063c4d66de814610619578063c4e41b2214610639578063c909e6ce1461064e578063d3c7f0261461066e578063d3e416061461068e578063d5501b0b1461071b578063d7533f0214610733578063dd75d64a14610751578063ec82120314610771578063f04e283e14610791578063f2fde38b146107a4578063f36bdbc9146107b7578063f887ea40146107d7578063fe17b8e11461080b578063fee81cf41461083b575b600080fd5b34801561022857600080fd5b5061023c610237366004612a7f565b61086e565b60405161024a929190612aa9565b60405180910390f35b34801561025f57600080fd5b5061027361026e366004612ab7565b6108b2565b60405190815260200161024a565b34801561028d57600080fd5b50600454610273565b3480156102a257600080fd5b5061023c6108c3565b3480156102b757600080fd5b506102df7f000000000000000000000000000000000000000000000000000000000000000081565b60405161024a9190612ad2565b3480156102f857600080fd5b5061030c610307366004612b0d565b610900565b60408051938452602084019290925215159082015260600161024a565b34801561033557600080fd5b50600e54600f5461023c565b34801561034d57600080fd5b5061027361035c366004612ab7565b610b45565b34801561036d57600080fd5b50600d54610273565b34801561038257600080fd5b50600c54610273565b610393610b50565b005b3480156103a157600080fd5b506103b56103b0366004612b49565b610b9f565b6040805192835290151560208301520161024a565b3480156103d657600080fd5b5061023c6103e5366004612a7f565b610bfa565b3480156103f657600080fd5b50600c54600d5461023c565b34801561040e57600080fd5b5061027361041d366004612b62565b610c34565b34801561042e57600080fd5b5061023c61043d366004612b62565b610c69565b34801561044e57600080fd5b5061027361045d366004612a7f565b610cc5565b610393610d74565b34801561047657600080fd5b5061048a610485366004612b7d565b610db0565b6040805193845260208401929092529082015260600161024a565b3480156104b157600080fd5b50610273610f60565b3480156104c657600080fd5b506102736104d5366004612b49565b610f6f565b3480156104e657600080fd5b50610273610f7a565b3480156104fb57600080fd5b5061048a61050a366004612a7f565b610faa565b34801561051b57600080fd5b5061023c61052a366004612b49565b611202565b610393611220565b34801561054357600080fd5b506102df7f000000000000000000000000000000000000000000000000000000000000000081565b34801561057757600080fd5b5061023c610586366004612b62565b611234565b34801561059757600080fd5b5061023c6105a6366004612b62565b611281565b3480156105b757600080fd5b50638b78c6d819546102df565b3480156105d057600080fd5b506103b56105df366004612b49565b61137a565b3480156105f057600080fd5b506103936105ff366004612b49565b6113b2565b34801561061057600080fd5b5061048a61142c565b34801561062557600080fd5b50610393610634366004612b62565b611470565b34801561064557600080fd5b50600554610273565b34801561065a57600080fd5b50610393610669366004612b99565b611587565b34801561067a57600080fd5b50610273610689366004612b49565b6115ee565b34801561069a57600080fd5b506106ae6106a9366004612b62565b6115f9565b60405161024a9190600061012082019050825182526020830151602083015260408301516040830152606083015160608301526080830151608083015260a083015160a083015260c083015160c083015260e083015160e083015261010080840151818401525092915050565b34801561072757600080fd5b5060065460075461023c565b34801561073f57600080fd5b506040516202a300815260200161024a565b34801561075d57600080fd5b5061027361076c366004612b62565b61160a565b34801561077d57600080fd5b5061048a61078c366004612a7f565b611628565b61039361079f366004612b62565b6117fa565b6103936107b2366004612b62565b61183a565b3480156107c357600080fd5b506102736107d2366004612a7f565b611861565b3480156107e357600080fd5b506102df7f000000000000000000000000000000000000000000000000000000000000000081565b34801561081757600080fd5b5061082b610826366004612bbb565b61190e565b60405161024a9493929190612bd6565b34801561084757600080fd5b50610273610856366004612b62565b63389a75e1600c908152600091909152602090205490565b600080600061087c85611957565b905080841115610896576108908185612c07565b91508093505b6108a885856108a361198c565b6119e5565b9250509250929050565b60006108bd82611aa3565b92915050565b60008060006108d061198c565b604081015181519192506108e391612c1a565b816060015182602001516108f79190612c1a565b92509250509091565b60008080336001600160a01b037f0000000000000000000000000000000000000000000000000000000000000000161461094d576040516320fac5fd60e21b815260040160405180910390fd5b600061095887611ad3565b9050806040015186111561097f57604051634876fe0560e01b815260040160405180910390fd5b841561099157806040015195506109b6565b43816101000151036109b65760405163fd4b12b160e01b815260040160405180910390fd5b6000806109c288611b5c565b604085015185519294509092506109fa916109de918b90611cac565b604085015160208601516109f3918c90611cac565b8484611d5b565b600254604086015192985090965090600090610a17908b90612c07565b90508015610a9257610a39818660e0015184610a339190612c2d565b90611db2565b85606001818151610a4a9190612c4d565b90525060408501518551610a5f918390611cac565b85526040850151610a739084908390611cac565b60208601526040850181905260e0850182905243610100860152610ae1565b6001955060405180610120016040528060008152602001600081526020016000815260200160008152602001600081526020016000815260200160008152602001600081526020014381525094505b610aeb8b86611e04565b6001600160a01b038b16600080516020612d4a833981519152610b178c670de0b6b3a763ffff19611e7a565b8760400151600080604051610b2f9493929190612bd6565b60405180910390a2505050505093509350939050565b60006108bd82611957565b60006202a3006001600160401b03164201905063389a75e1600c5233600052806020600c2055337fdbf36a107da19e49527a7176a1babf963b4b0ff8cde35ee35d6cd8f1f9ac7e1d600080a250565b600c54600090819080841115610bc457610bb96001611aa3565b946001945092505050565b600d5480851015610be557610bd96000611aa3565b95600195509350505050565b610bee85611ea6565b95600095509350505050565b6000806000610c0885611aa3565b905080841115610c2257610c1c8185612c07565b91508093505b6108a88585610c2f61198c565b611ed2565b600080610c4083611ad3565b9050610c628160800151600454610c579190612c07565b604083015190611f88565b9392505050565b6000806000610c7784611ad3565b90506000610c83611f9d565b9050610ca782608001518260600151610c9c9190612c07565b604084015190611f88565b9350610cbc8282600001518360200151611ffb565b92505050915091565b600080610cd061198c565b9050600081604001518260000151610ce89190612c1a565b9050600082606001518360200151610d009190612c1a565b90506000866001811115610d1657610d16612c75565b03610d2c57610d258583612c1a565b9150610d51565b82518510610d445764174876e80093505050506108bd565b610d4e8583612c07565b91505b600b54610d5e908361209a565b9050610d6a828261209a565b9695505050505050565b63389a75e1600c523360005260006020600c2055337ffa7b8eab7da67f412cc9575ed43464468f9bfbae89d1675917346ca6d8fe3c92600080a2565b60008080336001600160a01b037f00000000000000000000000000000000000000000000000000000000000000001614610dfd576040516320fac5fd60e21b815260040160405180910390fd5b6000610e0886611ad3565b90504381610100015103610e2f5760405163fd4b12b160e01b815260040160405180910390fd5b610e38856120af565b919550935091506000610e49611f9d565b90508160400151600014610e8857610e7382604001518360e001518360400151610a339190612c2d565b82606001818151610e849190612c4d565b9052505b604051806101200160405280858460000151610ea49190612c1a565b8152602001848460200151610eb99190612c1a565b8152602001868460400151610ece9190612c1a565b81526020018360600151815260200182606001518152602001826000015181526020018260200151815260200182604001518152602001438152509150610f158783611e04565b866001600160a01b0316600080516020612d4a833981519152610f3787612427565b8460400151600080604051610f4f9493929190612bd6565b60405180910390a250509250925092565b6000610f6a612440565b905090565b60006108bd82611ea6565b600080610f8561198c565b90508060200151600003610f9b57600091505090565b610fa4816124c4565b91505090565b60008080336001600160a01b037f00000000000000000000000000000000000000000000000000000000000000001614610ff7576040516320fac5fd60e21b815260040160405180910390fd5b836000036110185760405163eea7064360e01b815260040160405180910390fd5b600061102261198c565b9050600061102f87611aa3565b905080861115611049576110438187612c07565b93508095505b611054878784611ed2565b9250600187600181111561106a5761106a612c75565b036110c457816020015186106110935760405163226f999960e11b815260040160405180910390fd5b82826000018181516110a59190612c1a565b9052506020820180518791906110bc908390612c07565b905250611112565b815183106110e55760405163226f999960e11b815260040160405180910390fd5b82826000018181516110f79190612c07565b90525060208201805187919061110e908390612c1a565b9052505b611140826060015183602001516111299190612c1a565b6040840151845161113a9190612c1a565b9061209a565b945061117482600001518360200151856111598a612427565b60015b8c600181111561116e5761116e612c75565b146124dd565b7fbdc2af1c8c8c5e9838d5c3bf7ede849f60e061477dce4ec73a1e10053ec240c08784886040516111a793929190612c8b565b60405180910390a160408201518251600080516020612d8a833981519152916111cf91612c1a565b836060015184602001516111e39190612c1a565b6040516111f1929190612aa9565b60405180910390a150509250925092565b600080611217836006546007546005546125d7565b91509150915091565b6112286125f2565b611232600061260d565b565b600080600061124284611ad3565b905060008061125d83604001516006546007546005546125d7565b91509150611275836000015184602001518484611d5b565b94509450505050915091565b600080336001600160a01b037f000000000000000000000000000000000000000000000000000000000000000016146112cd576040516320fac5fd60e21b815260040160405180910390fd5b60006112d884611ad3565b905060006112e4611f9d565b90506112fd82608001518260600151610c9c9190612c07565b93506113128282600001518360200151611ffb565b60608201516080840152815160a0840152602082015160c084015292506113398583611e04565b846001600160a01b0316600080516020612d4a83398151915260008460400151878760405161136b9493929190612bd6565b60405180910390a25050915091565b600c5460009081908084111561139457610bb96000611957565b600d54808510156113a957610bd96001611957565b610bee85612639565b336001600160a01b037f000000000000000000000000000000000000000000000000000000000000000016146113fb576040516320fac5fd60e21b815260040160405180910390fd5b600254611408908261265f565b611413906001612c4d565b600360008282546114249190612c4d565b909155505050565b60008060008061143a61198c565b6040810151815191925061144d91612c1a565b816060015182602001516114619190612c1a565b600b5493509350935050909192565b600054610100900460ff16158080156114905750600054600160ff909116105b806114aa5750303b1580156114aa575060005460ff166001145b6115115760405162461bcd60e51b815260206004820152602e60248201527f496e697469616c697a61626c653a20636f6e747261637420697320616c72656160448201526d191e481a5b9a5d1a585b1a5e995960921b606482015260840160405180910390fd5b6000805460ff191660011790558015611534576000805461ff0019166101001790555b61153d826126c9565b8015611583576000805461ff0019169055604051600181527f7f26b83ff96e1f2b6a682f133852f6798a09c465da95921460cefb38474024989060200160405180910390a15b5050565b61158f6125f2565b8181106115af5760405163172882d760e01b815260040160405180910390fd5b600c829055600d8190556115d16115cc836509184e72a000612c1a565b6126f3565b600e556115e76115cc6509184e72a00083612c07565b600f555050565b60006108bd82612639565b611601612a1f565b6108bd82611ad3565b60006108bd61161883611ad3565b61162061278a565b600354611ffb565b60008080336001600160a01b037f00000000000000000000000000000000000000000000000000000000000000001614611675576040516320fac5fd60e21b815260040160405180910390fd5b836000036116965760405163789593ed60e11b815260040160405180910390fd5b60006116a061198c565b905060006116ad87611957565b9050808611156116c7576116c18187612c07565b93508095505b6116d28787846119e5565b925060008760018111156116e8576116e8612c75565b0361174257816020015183106117115760405163226f999960e11b815260040160405180910390fd5b85826000018181516117239190612c1a565b90525060208201805184919061173a908390612c07565b905250611790565b815186106117635760405163226f999960e11b815260040160405180910390fd5b85826000018181516117759190612c07565b90525060208201805184919061178c908390612c1a565b9052505b6117a7826060015183602001516111299190612c1a565b94506117c782600001518360200151886117c087612427565b600061115c565b7fc840d6ec356bae99b60f3eca12969ceda50b96f8fb6c9418c3d0e073c0b525538787856040516111a793929190612c8b565b6118026125f2565b63389a75e1600c52806000526020600c20805442111561182a57636f5e88186000526004601cfd5b600090556118378161260d565b50565b6118426125f2565b8060601b61185857637448fbae6000526004601cfd5b6118378161260d565b60008061186c61198c565b90506000816040015182600001516118849190612c1a565b905060008260600151836020015161189c9190612c1a565b905060008660018111156118b2576118b2612c75565b036118c8576118c18582612c1a565b90506118f5565b826020015185106118e85769021e19e0c9bab240000093505050506108bd565b6118f28582612c07565b90505b600b54611902908261209a565b9150610d6a828261209a565b6000806000806008546006546119249190612c1a565b93506009546007546119369190612c1a565b9250600b5491508461194a57600d5461194e565b600c545b90509193509193565b60008082600181111561196c5761196c612c75565b146119815761197c600d54612639565b6108bd565b6108bd600c54612639565b6119b76040518060800160405280600081526020016000815260200160008152602001600081525090565b6040518060800160405280600654815260200160075481526020016008548152602001600954815250905090565b6000826000036119f757506000610c62565b60408201518251600091611a0a91612c1a565b9050600083606001518460200151611a229190612c1a565b90506000866001811115611a3857611a38612c75565b03611a4e57611a478583612c1a565b9150611a7c565b83518510611a6f5760405163226f999960e11b815260040160405180910390fd5b611a798583612c07565b91505b600b54600090611a8c908461209a565b9050611a988282612816565b979650505050505050565b600080826001811115611ab857611ab8612c75565b14611ac85761197c600c54611ea6565b6108bd600d54611ea6565b611adb612a1f565b506001600160a01b03166000908152600160208181526040928390208351610120810185528154815292810154918301919091526002810154928201929092526003820154606082015260048201546080820152600582015460a0820152600682015460c0820152600782015460e082015260089091015461010082015290565b6000806000611b6961198c565b905060006005549050611b868583600001518460200151846125d7565b8351919550935084908390611b9c908390612c07565b905250602082018051849190611bb3908390612c07565b905250611bc08582612c07565b82516006556020830151600755600581905590506000819003611bf657600060088190556009819055600a819055600b55611c5b565b611c0581600e54600f5461283e565b60608401819052604084018290526008919091556009819055600a8290556020830151611c4c91611c3591612c1a565b60408401518451611c469190612c1a565b90611f88565b611c57906001612c1a565b600b555b60408201518251600080516020612d8a83398151915291611c7b91612c1a565b83606001518460200151611c8f9190612c1a565b604051611c9d929190612aa9565b60405180910390a15050915091565b60008383026000198486098181108201900380611ce15783611cd65763ae47f7026000526004601cfd5b508290049050610c62565b808411611cf65763ae47f7026000526004601cfd5b838587096000858103861695869004956003870260029081188089028203028089028203028089028203028089028203028089028203028089029091030291819003819004600101858411909403939093029190930391909104170290509392505050565b600080611d6785612427565b611d7084612427565b611d7a9190612c2d565b915061271060ff83901c600003808401181015611d9c57506000905080611da9565b611da68685612816565b90505b94509492505050565b60008083128015611dc957611dc684612cc1565b93505b611de4611ddf8585670de0b6b3a7640000611cac565b612427565b91508015611dfd57611df582612cc1565b9150506108bd565b5092915050565b6001600160a01b03909116600090815260016020818152604092839020845181559084015191810191909155908201516002820155606082015160038201556080820151600482015560a0820151600582015560c0820151600682015560e0820151600782015561010090910151600890910155565b60008082128015611dc957611e8e83612cc1565b9250611de4611ddf8585670de0b6b3a7640000611cac565b60006108bd600954600754611ebb9190612c1a565b600b54611ecc906115cc908661209a565b90612816565b600082600003611ee457506000610c62565b60408201518251600091611ef791612c1a565b9050600083606001518460200151611f0f9190612c1a565b90506000866001811115611f2557611f25612c75565b03611f3b57611f348582612c1a565b9050611f6c565b83602001518510611f5f5760405163226f999960e11b815260040160405180910390fd5b611f698582612c07565b90505b600b54600090611f7c908361209a565b9050611a988382612816565b6000610c628383670de0b6b3a7640000611cac565b611fc86040518060800160405280600081526020016000815260200160008152602001600081525090565b6040518060800160405280611fdb61278a565b815260200160035481526020016002548152602001600454815250905090565b60008360400151600014610c625760008460a001518461201b9190612c2d565b9050612055856040015161203c838860e0015161265f90919063ffffffff16565b60c088015161204b9087612c2d565b610a339190612c2d565b6060860151612064908361265f565b61206e9190612c4d565b91506000821215612092576120856103e883612cdd565b61208f9083612c2d565b91505b509392505050565b6000610c6283670de0b6b3a764000084611cac565b600554600e54600f54600a54600093849384939192909190846120d061198c565b905084600003612275576000600c5490506000600d54905060007f00000000000000000000000000000000000000000000000000000000000000006001600160a01b031663604096326040518163ffffffff1660e01b8152600401602060405180830381865afa158015612148573d6000803e3d6000fd5b505050506040513d601f19601f8201168201806040525081019061216c9190612d19565b905060008160000361218557612180612440565b612187565b815b90508381116121a35782811061219d57806121a5565b826121a5565b835b905060006121b2826126f3565b90506121ef8e611c468a6121c6868e61209a565b6121d1866002612d32565b6121db9190612c07565b6121e59190612c07565b61113a8c86612c07565b9b506122508e611c468a612203868e61209a565b61220e866002612d32565b6122189190612c07565b6122229190612c07565b612234670de0b6b3a76400008e61209a565b612246670de0b6b3a76400008761209a565b61113a9190612c07565b9a506122666122618d8d8c8c612861565b61295f565b9c508c96505050505050612330565b6000612280826124c4565b9050600061228d826126f3565b905060006122d18c611c46886122a3878c61209a565b6122ae876002612d32565b6122b89190612c07565b6122c29190612c07565b670de0b6b3a76400009061209a565b90506122e76122e08784612c07565b8290611f88565b995061231a6122fe670de0b6b3a76400008961209a565b612310670de0b6b3a76400008561209a565b6122e09190612c07565b909a5097508961232a8186612c1a565b94505050505b86816000018181516123429190612c1a565b905250602081018051879190612359908390612c1a565b90525061236782858561283e565b6060830152604082015261237b8886612c1a565b600555600a8290558051600655602081015160078190556040820151600855606082015160098190556123c3916123b29190612c1a565b60408301518351611c469190612c1a565b6123ce906001612c1a565b600b5560408101518151600080516020612d8a833981519152916123f191612c1a565b826060015183602001516124059190612c1a565b604051612413929190612aa9565b60405180910390a150505050509193909250565b6000600160ff1b821061243c5761243c6129e4565b5090565b60007f00000000000000000000000000000000000000000000000000000000000000006001600160a01b03166358c0994a6040518163ffffffff1660e01b8152600401602060405180830381865afa1580156124a0573d6000803e3d6000fd5b505050506040513d601f19601f82011682018060405250810190610f6a9190612d19565b60006108bd826060015183602001516111299190612c1a565b60068590556007849055600554816124fe576124f983826129f2565b612511565b61250883826129f2565b61251190612cc1565b600260008282546125229190612c4d565b925050819055506125b98161113a7f00000000000000000000000000000000000000000000000000000000000000006001600160a01b0316632e8501a46040518163ffffffff1660e01b8152600401602060405180830381865afa15801561258e573d6000803e3d6000fd5b505050506040513d601f19601f820116820180604052508101906125b29190612d19565b8790611f88565b600460008282546125ca9190612c1a565b9091555050505050505050565b6000806125e5858785611cac565b9150611da6848785611cac565b638b78c6d819543314611232576382b429006000526004601cfd5b638b78c6d81980546001600160a01b03909216918290600080516020612d6a833981519152600080a355565b60006108bd60085460065461264e9190612c1a565b600b54611ecc906115cc9086611f88565b600080831281831280821415821561267d5761267a86612cc1565b95505b811561268f5761268c85612cc1565b94505b6126a5611ddf8787670de0b6b3a7640000611cac565b935080156126c0576126b684612cc1565b93505050506108bd565b50505092915050565b6001600160a01b0316638b78c6d819819055806000600080516020612d6a8339815191528180a350565b60006108bd61270a83670de0b6b3a7640000612d32565b6001600160881b03811160071b81811c6001600160481b031060061b1781811c64ffffffffff1060051b1781811c62ffffff1060041b1781811c620100000160b5600192831c1b0260121c80830401811c80830401811c80830401811c80830401811c80830401811c80830401811c80830401901c908190048111900390565b6040516301ba907960e61b81526000906001600160a01b037f00000000000000000000000000000000000000000000000000000000000000001690636ea41e40906127f9907f000000000000000000000000000000000000000000000000000000000000000090600401612ad2565b602060405180830381865afa1580156124a0573d6000803e3d6000fd5b6000610c6261282483612427565b61282d85612427565b818113818303929091038218021890565b60008061284b8584611f88565b9150612857858561209a565b9050935093915050565b61288c6040518060800160405280600081526020016000815260200160008152602001600081525090565b612896828461209a565b6128a890670de0b6b3a7640000612c07565b815260006128b6868561209a565b905060006128c48685611f88565b90506128d08183612c1a565b60208401526128df8688611f88565b606084015260006129028661113a87611c46671bc16d674ec80000818d8f611f88565b9050600061291d6129138880611f88565b61113a8b80611f88565b905061292f86611c4681818c80611f88565b604086015261293e8183612c1a565b8560400181815161294f9190612c1a565b9052509398975050505050505050565b8051600090819061297890671bc16d674ec80000611f88565b905060006129a38460000151611c46673782dace9d9000008760600151611f8890919063ffffffff16565b905060008185604001516129b79190612c1a565b905060006129c4826126f3565b905060008187602001516129d89190612c1a565b9050611a98818661209a565b6335278d126000526004601cfd5b60008083128015612a0957612a0684612cc1565b93505b611de4611ddf85670de0b6b3a764000086611cac565b6040518061012001604052806000815260200160008152602001600081526020016000815260200160008152602001600081526020016000815260200160008152602001600081525090565b803560028110612a7a57600080fd5b919050565b60008060408385031215612a9257600080fd5b612a9b83612a6b565b946020939093013593505050565b918252602082015260400190565b600060208284031215612ac957600080fd5b610c6282612a6b565b6001600160a01b0391909116815260200190565b80356001600160a01b0381168114612a7a57600080fd5b80358015158114612a7a57600080fd5b600080600060608486031215612b2257600080fd5b612b2b84612ae6565b925060208401359150612b4060408501612afd565b90509250925092565b600060208284031215612b5b57600080fd5b5035919050565b600060208284031215612b7457600080fd5b610c6282612ae6565b60008060408385031215612b9057600080fd5b612a9b83612ae6565b60008060408385031215612bac57600080fd5b50508035926020909101359150565b600060208284031215612bcd57600080fd5b610c6282612afd565b93845260208401929092526040830152606082015260800190565b634e487b7160e01b600052601160045260246000fd5b818103818111156108bd576108bd612bf1565b808201808211156108bd576108bd612bf1565b8181036000831280158383131683831282161715611dfd57611dfd612bf1565b8082018281126000831280158216821582161715612c6d57612c6d612bf1565b505092915050565b634e487b7160e01b600052602160045260246000fd5b6060810160028510612cad57634e487b7160e01b600052602160045260246000fd5b938152602081019290925260409091015290565b6000600160ff1b8201612cd657612cd6612bf1565b5060000390565b600082612cfa57634e487b7160e01b600052601260045260246000fd5b600160ff1b821460001984141615612d1457612d14612bf1565b500590565b600060208284031215612d2b57600080fd5b5051919050565b80820281158282048414176108bd576108bd612bf156fe49d315f170762335b83e413058f5b79a513ef7baa43e9e43d4c80c0622ab06c18be0079c531659141344cd1fd0a4f28419497f9722a3daafe3b4186f6b6457e05141ecc84a35c12ca2bf76bb33d393bd2fc22f906da0743534beef4ae63c6c8ea2646970667358221220fdb1738447ac57fdf98b7a42425fa4427ccc93eb62dde27d1cab987d64d9a4d064736f6c63430008130033",
    "linkReferences": {}
  },
  "methodIdentifiers": {
    "addLiquidity(address,uint256)": "56688700",
    "cancelOwnershipHandover()": "54d1f13d",
    "clearingHouse()": "0af96800",
    "completeOwnershipHandover(address)": "f04e283e",
    "getBaseToFill(uint256)": "5c220aa1",
    "getBaseToFillWithRemaining(uint256)": "2faee2ba",
    "getBaseValue(uint8,uint256)": "009a7ade",
    "getBounds()": "3cc87a20",
    "getFeeGrowth()": "06a7643c",
    "getIndexPrice()": "58c0994a",
    "getLowerBound()": "1de0f095",
    "getMakerFundingPayment(address)": "dd75d64a",
    "getMakerImpermanentPosition(address)": "75011b9c",
    "getMakerPosition(address)": "d3e41606",
    "getMarkPrice()": "60409632",
    "getMarkPriceAfterClose(uint8,uint256)": "f36bdbc9",
    "getMarkPriceAfterOpen(uint8,uint256)": "4d85468b",
    "getMaxBaseToFill(uint8)": "017add88",
    "getMaxQuoteToFill(uint8)": "14cc2116",
    "getPendingMakerFeeAndFundingPayment(address)": "4ae91523",
    "getPendingMakerFees(address)": "435e13bf",
    "getQuoteToFill(uint256)": "d3c7f026",
    "getQuoteToFillWithRemaining(uint256)": "a875b5e2",
    "getQuoteValue(uint8,uint256)": "3911138f",
    "getRealReserves()": "d5501b0b",
    "getReserves()": "0902f1ac",
    "getReservesAndK()": "c24e3859",
    "getReservesKAndMaxPrice(bool)": "fe17b8e1",
    "getShareValue(uint256)": "6edd7590",
    "getSqrtBounds()": "1483b602",
    "getTotalSupply()": "c4e41b22",
    "getUpperBound()": "22c180b5",
    "initialize(address)": "c4d66de8",
    "owner()": "8da5cb5b",
    "ownershipHandoverExpiresAt(address)": "fee81cf4",
    "ownershipHandoverValidFor()": "d7533f02",
    "priceFeed()": "741bef1a",
    "removeLiquidity(address,uint256,bool)": "0ee28a88",
    "renounceOwnership()": "715018a6",
    "requestOwnershipHandover()": "25692962",
    "router()": "f887ea40",
    "setBounds(uint256,uint256)": "c909e6ce",
    "settleMakerFundingAndFees(address)": "7d053c5f",
    "swapClose(uint8,uint256)": "65f66425",
    "swapOpen(uint8,uint256)": "ec821203",
    "transferOwnership(address)": "f2fde38b",
    "updatePremiumFractionPerShare(int256)": "bb825160"
  },
  "id": 43
}