{
  "abi": [
    {
      "type": "constructor",
      "inputs": [
        {
          "name": "_weth",
          "type": "address",
          "internalType": "address"
        },
        {
          "name": "_insuranceFund",
          "type": "address",
          "internalType": "address"
        },
        {
          "name": "_positionManager",
          "type": "address",
          "internalType": "address"
        },
        {
          "name": "_positionMerger",
          "type": "address",
          "internalType": "address"
        },
        {
          "name": "_deleverager",
          "type": "address",
          "internalType": "address"
        },
        {
          "name": "_orderCreator",
          "type": "address",
          "internalType": "address"
        }
      ],
      "stateMutability": "nonpayable"
    },
    {
      "type": "function",
      "name": "addLiquidity",
      "inputs": [
        {
          "name": "amm",
          "type": "address",
          "internalType": "contract IRouter"
        },
        {
          "name": "data",
          "type": "tuple[]",
          "internalType": "struct LiquidityAddData[]",
          "components": [
            {
              "name": "index",
              "type": "uint256",
              "internalType": "uint256"
            },
            {
              "name": "margin",
              "type": "uint256",
              "internalType": "uint256"
            },
            {
              "name": "leverage",
              "type": "uint256",
              "internalType": "uint256"
            }
          ]
        }
      ],
      "outputs": [
        {
          "name": "returnData",
          "type": "tuple[]",
          "internalType": "struct LiquidityAddReturnData[]",
          "components": [
            {
              "name": "pool",
              "type": "address",
              "internalType": "contract IPool"
            },
            {
              "name": "shares",
              "type": "uint256",
              "internalType": "uint256"
            },
            {
              "name": "quote",
              "type": "uint256",
              "internalType": "uint256"
            },
            {
              "name": "base",
              "type": "uint256",
              "internalType": "uint256"
            }
          ]
        }
      ],
      "stateMutability": "nonpayable"
    },
    {
      "type": "function",
      "name": "addMargin",
      "inputs": [
        {
          "name": "amm",
          "type": "address",
          "internalType": "contract IRouter"
        },
        {
          "name": "margin",
          "type": "uint256",
          "internalType": "uint256"
        }
      ],
      "outputs": [],
      "stateMutability": "nonpayable"
    },
    {
      "type": "function",
      "name": "cancelOwnershipHandover",
      "inputs": [],
      "outputs": [],
      "stateMutability": "payable"
    },
    {
      "type": "function",
      "name": "closePosition",
      "inputs": [
        {
          "name": "amm",
          "type": "address",
          "internalType": "contract IRouter"
        },
        {
          "name": "size",
          "type": "uint256",
          "internalType": "uint256"
        },
        {
          "name": "quoteLimit",
          "type": "uint256",
          "internalType": "uint256"
        }
      ],
      "outputs": [
        {
          "name": "quoteAmount",
          "type": "uint256",
          "internalType": "uint256"
        }
      ],
      "stateMutability": "nonpayable"
    },
    {
      "type": "function",
      "name": "closePositionKeeper",
      "inputs": [
        {
          "name": "id",
          "type": "uint256",
          "internalType": "uint256"
        }
      ],
      "outputs": [
        {
          "name": "quoteAmount",
          "type": "uint256",
          "internalType": "uint256"
        }
      ],
      "stateMutability": "nonpayable"
    },
    {
      "type": "function",
      "name": "completeOwnershipHandover",
      "inputs": [
        {
          "name": "pendingOwner",
          "type": "address",
          "internalType": "address"
        }
      ],
      "outputs": [],
      "stateMutability": "payable"
    },
    {
      "type": "function",
      "name": "createLimitOrder",
      "inputs": [
        {
          "name": "order",
          "type": "tuple",
          "internalType": "struct LimitOrder",
          "components": [
            {
              "name": "trader",
              "type": "address",
              "internalType": "address"
            },
            {
              "name": "amm",
              "type": "address",
              "internalType": "contract IRouter"
            },
            {
              "name": "side",
              "type": "uint8",
              "internalType": "enum Side"
            },
            {
              "name": "trigger",
              "type": "uint256",
              "internalType": "uint256"
            },
            {
              "name": "quoteAmount",
              "type": "uint256",
              "internalType": "uint256"
            },
            {
              "name": "leverage",
              "type": "uint256",
              "internalType": "uint256"
            },
            {
              "name": "reduceOnly",
              "type": "bool",
              "internalType": "bool"
            }
          ]
        }
      ],
      "outputs": [
        {
          "name": "id",
          "type": "uint256",
          "internalType": "uint256"
        }
      ],
      "stateMutability": "nonpayable"
    },
    {
      "type": "function",
      "name": "createLimitOrderBatch",
      "inputs": [
        {
          "name": "_orders",
          "type": "tuple[]",
          "internalType": "struct LimitOrder[]",
          "components": [
            {
              "name": "trader",
              "type": "address",
              "internalType": "address"
            },
            {
              "name": "amm",
              "type": "address",
              "internalType": "contract IRouter"
            },
            {
              "name": "side",
              "type": "uint8",
              "internalType": "enum Side"
            },
            {
              "name": "trigger",
              "type": "uint256",
              "internalType": "uint256"
            },
            {
              "name": "quoteAmount",
              "type": "uint256",
              "internalType": "uint256"
            },
            {
              "name": "leverage",
              "type": "uint256",
              "internalType": "uint256"
            },
            {
              "name": "reduceOnly",
              "type": "bool",
              "internalType": "bool"
            }
          ]
        }
      ],
      "outputs": [
        {
          "name": "ids",
          "type": "uint256[]",
          "internalType": "uint256[]"
        }
      ],
      "stateMutability": "nonpayable"
    },
    {
      "type": "function",
      "name": "createTriggerOrder",
      "inputs": [
        {
          "name": "order",
          "type": "tuple",
          "internalType": "struct TriggerOrder",
          "components": [
            {
              "name": "trader",
              "type": "address",
              "internalType": "address"
            },
            {
              "name": "amm",
              "type": "address",
              "internalType": "contract IRouter"
            },
            {
              "name": "trigger",
              "type": "uint256",
              "internalType": "uint256"
            },
            {
              "name": "size",
              "type": "uint256",
              "internalType": "uint256"
            },
            {
              "name": "quoteLimit",
              "type": "uint256",
              "internalType": "uint256"
            },
            {
              "name": "takeProfit",
              "type": "bool",
              "internalType": "bool"
            }
          ]
        }
      ],
      "outputs": [
        {
          "name": "id",
          "type": "uint256",
          "internalType": "uint256"
        }
      ],
      "stateMutability": "nonpayable"
    },
    {
      "type": "function",
      "name": "deleteLimitOrder",
      "inputs": [
        {
          "name": "id",
          "type": "uint256",
          "internalType": "uint256"
        }
      ],
      "outputs": [],
      "stateMutability": "nonpayable"
    },
    {
      "type": "function",
      "name": "deleteLimitOrderBatch",
      "inputs": [
        {
          "name": "ids",
          "type": "uint256[]",
          "internalType": "uint256[]"
        }
      ],
      "outputs": [],
      "stateMutability": "nonpayable"
    },
    {
      "type": "function",
      "name": "deleteTriggerOrder",
      "inputs": [
        {
          "name": "id",
          "type": "uint256",
          "internalType": "uint256"
        }
      ],
      "outputs": [],
      "stateMutability": "nonpayable"
    },
    {
      "type": "function",
      "name": "deleverage",
      "inputs": [
        {
          "name": "amm",
          "type": "address",
          "internalType": "contract IRouter"
        },
        {
          "name": "taker",
          "type": "address",
          "internalType": "address"
        },
        {
          "name": "maker",
          "type": "address",
          "internalType": "address"
        },
        {
          "name": "size",
          "type": "uint256",
          "internalType": "uint256"
        }
      ],
      "outputs": [],
      "stateMutability": "nonpayable"
    },
    {
      "type": "function",
      "name": "getCumulativePremiumFraction",
      "inputs": [
        {
          "name": "amm",
          "type": "address",
          "internalType": "contract IRouter"
        }
      ],
      "outputs": [
        {
          "name": "",
          "type": "int256",
          "internalType": "int256"
        }
      ],
      "stateMutability": "view"
    },
    {
      "type": "function",
      "name": "getDivergenceCap",
      "inputs": [],
      "outputs": [
        {
          "name": "",
          "type": "uint256",
          "internalType": "uint256"
        }
      ],
      "stateMutability": "view"
    },
    {
      "type": "function",
      "name": "getLimitOrder",
      "inputs": [
        {
          "name": "id",
          "type": "uint256",
          "internalType": "uint256"
        }
      ],
      "outputs": [
        {
          "name": "",
          "type": "tuple",
          "internalType": "struct LimitOrder",
          "components": [
            {
              "name": "trader",
              "type": "address",
              "internalType": "address"
            },
            {
              "name": "amm",
              "type": "address",
              "internalType": "contract IRouter"
            },
            {
              "name": "side",
              "type": "uint8",
              "internalType": "enum Side"
            },
            {
              "name": "trigger",
              "type": "uint256",
              "internalType": "uint256"
            },
            {
              "name": "quoteAmount",
              "type": "uint256",
              "internalType": "uint256"
            },
            {
              "name": "leverage",
              "type": "uint256",
              "internalType": "uint256"
            },
            {
              "name": "reduceOnly",
              "type": "bool",
              "internalType": "bool"
            }
          ]
        }
      ],
      "stateMutability": "view"
    },
    {
      "type": "function",
      "name": "getMinOrderbookMargin",
      "inputs": [],
      "outputs": [
        {
          "name": "",
          "type": "uint256",
          "internalType": "uint256"
        }
      ],
      "stateMutability": "view"
    },
    {
      "type": "function",
      "name": "getOpenInterestNotional",
      "inputs": [
        {
          "name": "amm",
          "type": "address",
          "internalType": "contract IRouter"
        }
      ],
      "outputs": [
        {
          "name": "",
          "type": "uint256",
          "internalType": "uint256"
        }
      ],
      "stateMutability": "view"
    },
    {
      "type": "function",
      "name": "getPosition",
      "inputs": [
        {
          "name": "amm",
          "type": "address",
          "internalType": "contract IRouter"
        },
        {
          "name": "trader",
          "type": "address",
          "internalType": "address"
        }
      ],
      "outputs": [
        {
          "name": "",
          "type": "tuple",
          "internalType": "struct Position",
          "components": [
            {
              "name": "size",
              "type": "int256",
              "internalType": "int256"
            },
            {
              "name": "margin",
              "type": "uint256",
              "internalType": "uint256"
            },
            {
              "name": "openNotional",
              "type": "uint256",
              "internalType": "uint256"
            },
            {
              "name": "lastPremiumFraction",
              "type": "int256",
              "internalType": "int256"
            },
            {
              "name": "blockNumber",
              "type": "uint256",
              "internalType": "uint256"
            }
          ]
        }
      ],
      "stateMutability": "view"
    },
    {
      "type": "function",
      "name": "getPositionNotionalUpnl",
      "inputs": [
        {
          "name": "amm",
          "type": "address",
          "internalType": "contract IRouter"
        },
        {
          "name": "trader",
          "type": "address",
          "internalType": "address"
        }
      ],
      "outputs": [
        {
          "name": "positionNotional",
          "type": "uint256",
          "internalType": "uint256"
        },
        {
          "name": "upnl",
          "type": "int256",
          "internalType": "int256"
        }
      ],
      "stateMutability": "view"
    },
    {
      "type": "function",
      "name": "getReduceOnlyOrders",
      "inputs": [
        {
          "name": "trader",
          "type": "address",
          "internalType": "address"
        },
        {
          "name": "amm",
          "type": "address",
          "internalType": "contract IRouter"
        }
      ],
      "outputs": [
        {
          "name": "",
          "type": "uint256[]",
          "internalType": "uint256[]"
        }
      ],
      "stateMutability": "view"
    },
    {
      "type": "function",
      "name": "getTotalPositionSize",
      "inputs": [
        {
          "name": "amm",
          "type": "address",
          "internalType": "contract IRouter"
        }
      ],
      "outputs": [
        {
          "name": "",
          "type": "tuple",
          "internalType": "struct TotalPositionSize",
          "components": [
            {
              "name": "netPositionSize",
              "type": "int256",
              "internalType": "int256"
            },
            {
              "name": "positionSizeLong",
              "type": "uint256",
              "internalType": "uint256"
            },
            {
              "name": "positionSizeShort",
              "type": "uint256",
              "internalType": "uint256"
            }
          ]
        }
      ],
      "stateMutability": "view"
    },
    {
      "type": "function",
      "name": "getTriggerOrder",
      "inputs": [
        {
          "name": "id",
          "type": "uint256",
          "internalType": "uint256"
        }
      ],
      "outputs": [
        {
          "name": "",
          "type": "tuple",
          "internalType": "struct TriggerOrder",
          "components": [
            {
              "name": "trader",
              "type": "address",
              "internalType": "address"
            },
            {
              "name": "amm",
              "type": "address",
              "internalType": "contract IRouter"
            },
            {
              "name": "trigger",
              "type": "uint256",
              "internalType": "uint256"
            },
            {
              "name": "size",
              "type": "uint256",
              "internalType": "uint256"
            },
            {
              "name": "quoteLimit",
              "type": "uint256",
              "internalType": "uint256"
            },
            {
              "name": "takeProfit",
              "type": "bool",
              "internalType": "bool"
            }
          ]
        }
      ],
      "stateMutability": "view"
    },
    {
      "type": "function",
      "name": "getTriggerOrders",
      "inputs": [
        {
          "name": "trader",
          "type": "address",
          "internalType": "address"
        },
        {
          "name": "amm",
          "type": "address",
          "internalType": "contract IRouter"
        }
      ],
      "outputs": [
        {
          "name": "",
          "type": "uint256[]",
          "internalType": "uint256[]"
        }
      ],
      "stateMutability": "view"
    },
    {
      "type": "function",
      "name": "getValidAMM",
      "inputs": [
        {
          "name": "amm",
          "type": "address",
          "internalType": "contract IRouter"
        }
      ],
      "outputs": [
        {
          "name": "",
          "type": "bool",
          "internalType": "bool"
        }
      ],
      "stateMutability": "view"
    },
    {
      "type": "function",
      "name": "initialize",
      "inputs": [
        {
          "name": "_owner",
          "type": "address",
          "internalType": "address"
        },
        {
          "name": "_divergenceCap",
          "type": "uint256",
          "internalType": "uint256"
        },
        {
          "name": "_minOrderbookMargin",
          "type": "uint256",
          "internalType": "uint256"
        }
      ],
      "outputs": [],
      "stateMutability": "nonpayable"
    },
    {
      "type": "function",
      "name": "isActive",
      "inputs": [],
      "outputs": [
        {
          "name": "",
          "type": "bool",
          "internalType": "bool"
        }
      ],
      "stateMutability": "view"
    },
    {
      "type": "function",
      "name": "isLiquidatable",
      "inputs": [
        {
          "name": "amm",
          "type": "address",
          "internalType": "contract IRouter"
        },
        {
          "name": "trader",
          "type": "address",
          "internalType": "address"
        }
      ],
      "outputs": [
        {
          "name": "",
          "type": "bool",
          "internalType": "bool"
        }
      ],
      "stateMutability": "view"
    },
    {
      "type": "function",
      "name": "isTriggerOrderValid",
      "inputs": [
        {
          "name": "id",
          "type": "uint256",
          "internalType": "uint256"
        }
      ],
      "outputs": [
        {
          "name": "",
          "type": "bool",
          "internalType": "bool"
        }
      ],
      "stateMutability": "view"
    },
    {
      "type": "function",
      "name": "liquidate",
      "inputs": [
        {
          "name": "amm",
          "type": "address",
          "internalType": "contract IRouter"
        },
        {
          "name": "size",
          "type": "uint256",
          "internalType": "uint256"
        },
        {
          "name": "liquidatee",
          "type": "address",
          "internalType": "address"
        },
        {
          "name": "margin",
          "type": "uint256",
          "internalType": "uint256"
        }
      ],
      "outputs": [],
      "stateMutability": "nonpayable"
    },
    {
      "type": "function",
      "name": "liquidateMaker",
      "inputs": [
        {
          "name": "amm",
          "type": "address",
          "internalType": "contract IRouter"
        },
        {
          "name": "liquidatee",
          "type": "address",
          "internalType": "address"
        },
        {
          "name": "margin",
          "type": "uint256",
          "internalType": "uint256"
        }
      ],
      "outputs": [],
      "stateMutability": "nonpayable"
    },
    {
      "type": "function",
      "name": "openPosition",
      "inputs": [
        {
          "name": "amm",
          "type": "address",
          "internalType": "contract IRouter"
        },
        {
          "name": "side",
          "type": "uint8",
          "internalType": "enum Side"
        },
        {
          "name": "quote",
          "type": "uint256",
          "internalType": "uint256"
        },
        {
          "name": "leverage",
          "type": "uint256",
          "internalType": "uint256"
        },
        {
          "name": "baseLimit",
          "type": "uint256",
          "internalType": "uint256"
        }
      ],
      "outputs": [
        {
          "name": "baseAmount",
          "type": "uint256",
          "internalType": "uint256"
        }
      ],
      "stateMutability": "nonpayable"
    },
    {
      "type": "function",
      "name": "owner",
      "inputs": [],
      "outputs": [
        {
          "name": "result",
          "type": "address",
          "internalType": "address"
        }
      ],
      "stateMutability": "view"
    },
    {
      "type": "function",
      "name": "ownershipHandoverExpiresAt",
      "inputs": [
        {
          "name": "pendingOwner",
          "type": "address",
          "internalType": "address"
        }
      ],
      "outputs": [
        {
          "name": "result",
          "type": "uint256",
          "internalType": "uint256"
        }
      ],
      "stateMutability": "view"
    },
    {
      "type": "function",
      "name": "ownershipHandoverValidFor",
      "inputs": [],
      "outputs": [
        {
          "name": "",
          "type": "uint64",
          "internalType": "uint64"
        }
      ],
      "stateMutability": "view"
    },
    {
      "type": "function",
      "name": "removeLiquidity",
      "inputs": [
        {
          "name": "amm",
          "type": "address",
          "internalType": "contract IRouter"
        },
        {
          "name": "data",
          "type": "tuple[]",
          "internalType": "struct LiquidityRemoveData[]",
          "components": [
            {
              "name": "index",
              "type": "uint256",
              "internalType": "uint256"
            },
            {
              "name": "shares",
              "type": "uint256",
              "internalType": "uint256"
            }
          ]
        },
        {
          "name": "removedMargin",
          "type": "uint256",
          "internalType": "uint256"
        },
        {
          "name": "addedMargin",
          "type": "uint256",
          "internalType": "uint256"
        }
      ],
      "outputs": [],
      "stateMutability": "nonpayable"
    },
    {
      "type": "function",
      "name": "removeMargin",
      "inputs": [
        {
          "name": "amm",
          "type": "address",
          "internalType": "contract IRouter"
        },
        {
          "name": "margin",
          "type": "uint256",
          "internalType": "uint256"
        }
      ],
      "outputs": [],
      "stateMutability": "nonpayable"
    },
    {
      "type": "function",
      "name": "renounceOwnership",
      "inputs": [],
      "outputs": [],
      "stateMutability": "payable"
    },
    {
      "type": "function",
      "name": "requestOwnershipHandover",
      "inputs": [],
      "outputs": [],
      "stateMutability": "payable"
    },
    {
      "type": "function",
      "name": "setActive",
      "inputs": [
        {
          "name": "_active",
          "type": "bool",
          "internalType": "bool"
        }
      ],
      "outputs": [],
      "stateMutability": "nonpayable"
    },
    {
      "type": "function",
      "name": "setDivergenceCap",
      "inputs": [
        {
          "name": "_divergenceCap",
          "type": "uint256",
          "internalType": "uint256"
        }
      ],
      "outputs": [],
      "stateMutability": "nonpayable"
    },
    {
      "type": "function",
      "name": "setMinOrderbookMargin",
      "inputs": [
        {
          "name": "minMargin",
          "type": "uint256",
          "internalType": "uint256"
        }
      ],
      "outputs": [],
      "stateMutability": "nonpayable"
    },
    {
      "type": "function",
      "name": "setValidAMM",
      "inputs": [
        {
          "name": "amm",
          "type": "address",
          "internalType": "contract IRouter"
        },
        {
          "name": "valid",
          "type": "bool",
          "internalType": "bool"
        }
      ],
      "outputs": [],
      "stateMutability": "nonpayable"
    },
    {
      "type": "function",
      "name": "settleFunding",
      "inputs": [
        {
          "name": "amm",
          "type": "address",
          "internalType": "contract IRouter"
        }
      ],
      "outputs": [],
      "stateMutability": "nonpayable"
    },
    {
      "type": "function",
      "name": "transferOwnership",
      "inputs": [
        {
          "name": "newOwner",
          "type": "address",
          "internalType": "address"
        }
      ],
      "outputs": [],
      "stateMutability": "payable"
    },
    {
      "type": "function",
      "name": "updateLimitOrder",
      "inputs": [
        {
          "name": "id",
          "type": "uint256",
          "internalType": "uint256"
        },
        {
          "name": "order",
          "type": "tuple",
          "internalType": "struct LimitOrder",
          "components": [
            {
              "name": "trader",
              "type": "address",
              "internalType": "address"
            },
            {
              "name": "amm",
              "type": "address",
              "internalType": "contract IRouter"
            },
            {
              "name": "side",
              "type": "uint8",
              "internalType": "enum Side"
            },
            {
              "name": "trigger",
              "type": "uint256",
              "internalType": "uint256"
            },
            {
              "name": "quoteAmount",
              "type": "uint256",
              "internalType": "uint256"
            },
            {
              "name": "leverage",
              "type": "uint256",
              "internalType": "uint256"
            },
            {
              "name": "reduceOnly",
              "type": "bool",
              "internalType": "bool"
            }
          ]
        }
      ],
      "outputs": [],
      "stateMutability": "nonpayable"
    },
    {
      "type": "function",
      "name": "updateLimitOrderBatch",
      "inputs": [
        {
          "name": "ids",
          "type": "uint256[]",
          "internalType": "uint256[]"
        },
        {
          "name": "_orders",
          "type": "tuple[]",
          "internalType": "struct LimitOrder[]",
          "components": [
            {
              "name": "trader",
              "type": "address",
              "internalType": "address"
            },
            {
              "name": "amm",
              "type": "address",
              "internalType": "contract IRouter"
            },
            {
              "name": "side",
              "type": "uint8",
              "internalType": "enum Side"
            },
            {
              "name": "trigger",
              "type": "uint256",
              "internalType": "uint256"
            },
            {
              "name": "quoteAmount",
              "type": "uint256",
              "internalType": "uint256"
            },
            {
              "name": "leverage",
              "type": "uint256",
              "internalType": "uint256"
            },
            {
              "name": "reduceOnly",
              "type": "bool",
              "internalType": "bool"
            }
          ]
        }
      ],
      "outputs": [],
      "stateMutability": "nonpayable"
    },
    {
      "type": "function",
      "name": "updateTriggerOrder",
      "inputs": [
        {
          "name": "id",
          "type": "uint256",
          "internalType": "uint256"
        },
        {
          "name": "order",
          "type": "tuple",
          "internalType": "struct TriggerOrder",
          "components": [
            {
              "name": "trader",
              "type": "address",
              "internalType": "address"
            },
            {
              "name": "amm",
              "type": "address",
              "internalType": "contract IRouter"
            },
            {
              "name": "trigger",
              "type": "uint256",
              "internalType": "uint256"
            },
            {
              "name": "size",
              "type": "uint256",
              "internalType": "uint256"
            },
            {
              "name": "quoteLimit",
              "type": "uint256",
              "internalType": "uint256"
            },
            {
              "name": "takeProfit",
              "type": "bool",
              "internalType": "bool"
            }
          ]
        }
      ],
      "outputs": [],
      "stateMutability": "nonpayable"
    },
    {
      "type": "event",
      "name": "Activated",
      "inputs": [],
      "anonymous": false
    },
    {
      "type": "event",
      "name": "Deactivated",
      "inputs": [],
      "anonymous": false
    },
    {
      "type": "event",
      "name": "FeeDistributed",
      "inputs": [
        {
          "name": "amm",
          "type": "address",
          "indexed": true,
          "internalType": "contract IRouter"
        },
        {
          "name": "payer",
          "type": "address",
          "indexed": true,
          "internalType": "address"
        },
        {
          "name": "receiver",
          "type": "address",
          "indexed": true,
          "internalType": "address"
        },
        {
          "name": "id",
          "type": "uint256",
          "indexed": false,
          "internalType": "uint256"
        },
        {
          "name": "amount",
          "type": "uint256",
          "indexed": false,
          "internalType": "uint256"
        },
        {
          "name": "feeType",
          "type": "uint8",
          "indexed": false,
          "internalType": "enum FeeType"
        }
      ],
      "anonymous": false
    },
    {
      "type": "event",
      "name": "FundingSettled",
      "inputs": [
        {
          "name": "amm",
          "type": "address",
          "indexed": true,
          "internalType": "contract IRouter"
        },
        {
          "name": "markPrice",
          "type": "uint256",
          "indexed": false,
          "internalType": "uint256"
        },
        {
          "name": "indexPrice",
          "type": "uint256",
          "indexed": false,
          "internalType": "uint256"
        },
        {
          "name": "premiumFraction",
          "type": "int256",
          "indexed": false,
          "internalType": "int256"
        }
      ],
      "anonymous": false
    },
    {
      "type": "event",
      "name": "Initialized",
      "inputs": [
        {
          "name": "version",
          "type": "uint8",
          "indexed": false,
          "internalType": "uint8"
        }
      ],
      "anonymous": false
    },
    {
      "type": "event",
      "name": "LimitOrderRemoved",
      "inputs": [
        {
          "name": "id",
          "type": "uint256",
          "indexed": true,
          "internalType": "uint256"
        },
        {
          "name": "amm",
          "type": "address",
          "indexed": true,
          "internalType": "contract IRouter"
        },
        {
          "name": "trader",
          "type": "address",
          "indexed": true,
          "internalType": "address"
        },
        {
          "name": "result",
          "type": "uint8",
          "indexed": false,
          "internalType": "enum LimitOrderResult"
        }
      ],
      "anonymous": false
    },
    {
      "type": "event",
      "name": "LimitOrderUpdated",
      "inputs": [
        {
          "name": "id",
          "type": "uint256",
          "indexed": true,
          "internalType": "uint256"
        },
        {
          "name": "amm",
          "type": "address",
          "indexed": true,
          "internalType": "contract IRouter"
        },
        {
          "name": "trader",
          "type": "address",
          "indexed": true,
          "internalType": "address"
        },
        {
          "name": "order",
          "type": "tuple",
          "indexed": false,
          "internalType": "struct LimitOrder",
          "components": [
            {
              "name": "trader",
              "type": "address",
              "internalType": "address"
            },
            {
              "name": "amm",
              "type": "address",
              "internalType": "contract IRouter"
            },
            {
              "name": "side",
              "type": "uint8",
              "internalType": "enum Side"
            },
            {
              "name": "trigger",
              "type": "uint256",
              "internalType": "uint256"
            },
            {
              "name": "quoteAmount",
              "type": "uint256",
              "internalType": "uint256"
            },
            {
              "name": "leverage",
              "type": "uint256",
              "internalType": "uint256"
            },
            {
              "name": "reduceOnly",
              "type": "bool",
              "internalType": "bool"
            }
          ]
        }
      ],
      "anonymous": false
    },
    {
      "type": "event",
      "name": "LiquidityAdded",
      "inputs": [
        {
          "name": "amm",
          "type": "address",
          "indexed": true,
          "internalType": "contract IRouter"
        },
        {
          "name": "maker",
          "type": "address",
          "indexed": true,
          "internalType": "address"
        }
      ],
      "anonymous": false
    },
    {
      "type": "event",
      "name": "LiquidityRemoved",
      "inputs": [
        {
          "name": "amm",
          "type": "address",
          "indexed": true,
          "internalType": "contract IRouter"
        },
        {
          "name": "trader",
          "type": "address",
          "indexed": true,
          "internalType": "address"
        }
      ],
      "anonymous": false
    },
    {
      "type": "event",
      "name": "MarginAdded",
      "inputs": [
        {
          "name": "amm",
          "type": "address",
          "indexed": true,
          "internalType": "contract IRouter"
        },
        {
          "name": "trader",
          "type": "address",
          "indexed": true,
          "internalType": "address"
        },
        {
          "name": "amount",
          "type": "uint256",
          "indexed": false,
          "internalType": "uint256"
        }
      ],
      "anonymous": false
    },
    {
      "type": "event",
      "name": "MarginRemoved",
      "inputs": [
        {
          "name": "amm",
          "type": "address",
          "indexed": true,
          "internalType": "contract IRouter"
        },
        {
          "name": "trader",
          "type": "address",
          "indexed": true,
          "internalType": "address"
        },
        {
          "name": "amount",
          "type": "uint256",
          "indexed": false,
          "internalType": "uint256"
        }
      ],
      "anonymous": false
    },
    {
      "type": "event",
      "name": "OpenInterestChanged",
      "inputs": [
        {
          "name": "amm",
          "type": "address",
          "indexed": true,
          "internalType": "contract IRouter"
        },
        {
          "name": "newOpenInterest",
          "type": "uint256",
          "indexed": false,
          "internalType": "uint256"
        }
      ],
      "anonymous": false
    },
    {
      "type": "event",
      "name": "OwnershipHandoverCanceled",
      "inputs": [
        {
          "name": "pendingOwner",
          "type": "address",
          "indexed": true,
          "internalType": "address"
        }
      ],
      "anonymous": false
    },
    {
      "type": "event",
      "name": "OwnershipHandoverRequested",
      "inputs": [
        {
          "name": "pendingOwner",
          "type": "address",
          "indexed": true,
          "internalType": "address"
        }
      ],
      "anonymous": false
    },
    {
      "type": "event",
      "name": "OwnershipTransferred",
      "inputs": [
        {
          "name": "oldOwner",
          "type": "address",
          "indexed": true,
          "internalType": "address"
        },
        {
          "name": "newOwner",
          "type": "address",
          "indexed": true,
          "internalType": "address"
        }
      ],
      "anonymous": false
    },
    {
      "type": "event",
      "name": "PositionChanged",
      "inputs": [
        {
          "name": "amm",
          "type": "address",
          "indexed": true,
          "internalType": "contract IRouter"
        },
        {
          "name": "trader",
          "type": "address",
          "indexed": true,
          "internalType": "address"
        },
        {
          "name": "margin",
          "type": "uint256",
          "indexed": false,
          "internalType": "uint256"
        },
        {
          "name": "size",
          "type": "int256",
          "indexed": false,
          "internalType": "int256"
        },
        {
          "name": "openNotional",
          "type": "uint256",
          "indexed": false,
          "internalType": "uint256"
        },
        {
          "name": "exchangedQuote",
          "type": "uint256",
          "indexed": false,
          "internalType": "uint256"
        },
        {
          "name": "exchangedBase",
          "type": "int256",
          "indexed": false,
          "internalType": "int256"
        },
        {
          "name": "realizedPnL",
          "type": "int256",
          "indexed": false,
          "internalType": "int256"
        },
        {
          "name": "fundingPayment",
          "type": "int256",
          "indexed": false,
          "internalType": "int256"
        },
        {
          "name": "markPrice",
          "type": "uint256",
          "indexed": false,
          "internalType": "uint256"
        },
        {
          "name": "tradeType",
          "type": "uint8",
          "indexed": false,
          "internalType": "enum TradeType"
        }
      ],
      "anonymous": false
    },
    {
      "type": "event",
      "name": "TriggerOrderRemoved",
      "inputs": [
        {
          "name": "id",
          "type": "uint256",
          "indexed": true,
          "internalType": "uint256"
        },
        {
          "name": "amm",
          "type": "address",
          "indexed": true,
          "internalType": "contract IRouter"
        },
        {
          "name": "trader",
          "type": "address",
          "indexed": true,
          "internalType": "address"
        },
        {
          "name": "keeper",
          "type": "address",
          "indexed": false,
          "internalType": "address"
        }
      ],
      "anonymous": false
    },
    {
      "type": "event",
      "name": "TriggerOrderUpdated",
      "inputs": [
        {
          "name": "id",
          "type": "uint256",
          "indexed": true,
          "internalType": "uint256"
        },
        {
          "name": "amm",
          "type": "address",
          "indexed": true,
          "internalType": "contract IRouter"
        },
        {
          "name": "trader",
          "type": "address",
          "indexed": true,
          "internalType": "address"
        },
        {
          "name": "order",
          "type": "tuple",
          "indexed": false,
          "internalType": "struct TriggerOrder",
          "components": [
            {
              "name": "trader",
              "type": "address",
              "internalType": "address"
            },
            {
              "name": "amm",
              "type": "address",
              "internalType": "contract IRouter"
            },
            {
              "name": "trigger",
              "type": "uint256",
              "internalType": "uint256"
            },
            {
              "name": "size",
              "type": "uint256",
              "internalType": "uint256"
            },
            {
              "name": "quoteLimit",
              "type": "uint256",
              "internalType": "uint256"
            },
            {
              "name": "takeProfit",
              "type": "bool",
              "internalType": "bool"
            }
          ]
        }
      ],
      "anonymous": false
    },
    {
      "type": "error",
      "name": "AMM_IS_ACTIVE",
      "inputs": []
    },
    {
      "type": "error",
      "name": "BAD_DEBT",
      "inputs": []
    },
    {
      "type": "error",
      "name": "INACTIVE",
      "inputs": []
    },
    {
      "type": "error",
      "name": "INSUFFICIENT_LIQUIDITY",
      "inputs": []
    },
    {
      "type": "error",
      "name": "INSUFFICIENT_MARGIN",
      "inputs": []
    },
    {
      "type": "error",
      "name": "INSUFFICIENT_OPEN_NOTIONAL",
      "inputs": []
    },
    {
      "type": "error",
      "name": "INSUFFICIENT_SIZE",
      "inputs": []
    },
    {
      "type": "error",
      "name": "INVALID_AMM",
      "inputs": []
    },
    {
      "type": "error",
      "name": "INVALID_SIDE",
      "inputs": []
    },
    {
      "type": "error",
      "name": "INVALID_TRIGGER_AMOUNT",
      "inputs": []
    },
    {
      "type": "error",
      "name": "LIQUIDATABLE",
      "inputs": []
    },
    {
      "type": "error",
      "name": "NOT_LIMIT_CLOSE",
      "inputs": []
    },
    {
      "type": "error",
      "name": "NOT_LIQUIDATABLE",
      "inputs": []
    },
    {
      "type": "error",
      "name": "NOT_REDUCE_ONLY",
      "inputs": []
    },
    {
      "type": "error",
      "name": "NOT_TRADER",
      "inputs": []
    },
    {
      "type": "error",
      "name": "NO_POOL_IN_RANGE",
      "inputs": []
    },
    {
      "type": "error",
      "name": "NO_POSITION",
      "inputs": []
    },
    {
      "type": "error",
      "name": "NewOwnerIsZeroAddress",
      "inputs": []
    },
    {
      "type": "error",
      "name": "NoHandoverRequest",
      "inputs": []
    },
    {
      "type": "error",
      "name": "OPEN_INTEREST_CAP_EXCEEDED",
      "inputs": []
    },
    {
      "type": "error",
      "name": "OVER_DIVERGENCE_CAP",
      "inputs": []
    },
    {
      "type": "error",
      "name": "OVER_MAX_LEVERAGE",
      "inputs": []
    },
    {
      "type": "error",
      "name": "OVER_MAX_SIZE",
      "inputs": []
    },
    {
      "type": "error",
      "name": "POSITION_ON_WRONG_SIDE",
      "inputs": []
    },
    {
      "type": "error",
      "name": "SANDWICH",
      "inputs": []
    },
    {
      "type": "error",
      "name": "TRIGGER_INVALID",
      "inputs": []
    },
    {
      "type": "error",
      "name": "TRIGGER_ON_MARK",
      "inputs": []
    },
    {
      "type": "error",
      "name": "Unauthorized",
      "inputs": []
    }
  ],
  "bytecode": {
    "object": "0x6101406040523480156200001257600080fd5b5060405162005fb738038062005fb7833981016040819052620000359162000156565b6001600160a01b038087166080528581166101205284811660a05283811660c05282811660e0528116610100526200006c62000078565b505050505050620001d7565b604154610100900460ff1615620000e55760405162461bcd60e51b815260206004820152602760248201527f496e697469616c697a61626c653a20636f6e747261637420697320696e697469604482015266616c697a696e6760c81b606482015260840160405180910390fd5b60415460ff9081161462000137576041805460ff191660ff9081179091556040519081527f7f26b83ff96e1f2b6a682f133852f6798a09c465da95921460cefb38474024989060200160405180910390a15b565b80516001600160a01b03811681146200015157600080fd5b919050565b60008060008060008060c087890312156200017057600080fd5b6200017b8762000139565b95506200018b6020880162000139565b94506200019b6040880162000139565b9350620001ab6060880162000139565b9250620001bb6080880162000139565b9150620001cb60a0880162000139565b90509295509295509295565b60805160a05160c05160e0516101005161012051615d2e620002896000396000611748015260008181610a8401528181611137015281816112a1015281816114790152611f3d01526000610e020152600081816110220152818161190e0152611aed015260008181610ce70152611ddd015260008181610f850152818161105b015281816117260152818161186e01528181611a5c01528181611ceb01528181611e4c015261224f0152615d2e6000f3fe6080604052600436106102235760003560e01c80630e86a08d1461022857806313dee2d114610262578063207b5b6f1461028457806322f3e2d4146102a457806323c16e22146102ce57806325692962146102fc57806325a208a2146103045780632a120de4146103245780632e2c3f3f1461034457806336cef3d9146103645780633966a28b14610472578063429e9237146104925780634a6ebce7146104c85780634fa9c4db146104f5578063517237a914610515578063530610261461053557806354b85a3e1461056257806354d1f13d146105825780635ac3b62d1461058a57806368d852971461059f5780636b17ad03146105bf5780636ea41e40146105df578063715018a61461061557806373af02051461061d5780637a1ac61e1461063d5780637aefce971461065d5780637eb024061461067d5780638da5cb5b1461069d5780639457be23146106bf578063987362da146106df5780639dda4e4f146106f4578063acec338a1461072d578063b33dc1901461074d578063b959d695146107af578063cbb50e61146107cf578063cf70cb69146107ef578063d24350521461080f578063d7533f021461082f578063da8c7e401461084d578063dd2a65ed1461086d578063e30467701461088d578063e859f372146108ad578063e980e16e146108cd578063efdb94231461090f578063f04e283e1461093c578063f2fde38b1461094f578063f8b6e44914610962578063fee81cf414610982575b600080fd5b34801561023457600080fd5b50610248610243366004614ade565b6109b5565b604080519283526020830191909152015b60405180910390f35b34801561026e57600080fd5b5061028261027d366004614b5b565b610a2c565b005b34801561029057600080fd5b5061028261029f366004614c02565b610ab1565b3480156102b057600080fd5b5060415462010000900460ff165b6040519015158152602001610259565b3480156102da57600080fd5b506102ee6102e9366004614c30565b610b6d565b604051908152602001610259565b610282610d3e565b34801561031057600080fd5b5061028261031f366004614c49565b610d8d565b34801561033057600080fd5b5061028261033f366004614dbb565b610e28565b34801561035057600080fd5b5061028261035f366004614de0565b610ede565b34801561037057600080fd5b5061041b61037f366004614c30565b6040805160c081018252600080825260208201819052918101829052606081018290526080810182905260a0810191909152506000908152600b6020908152604091829020825160c08101845281546001600160a01b03908116825260018301541692810192909252600281015492820192909252600382015460608201526004820154608082015260059091015460ff16151560a082015290565b604051610259919081516001600160a01b0390811682526020808401519091169082015260408083015190820152606080830151908201526080808301519082015260a09182015115159181019190915260c00190565b34801561047e57600080fd5b506102be61048d366004614ade565b6110c1565b34801561049e57600080fd5b506102ee6104ad366004614e76565b6001600160a01b031660009081526006602052604090205490565b3480156104d457600080fd5b506104e86104e3366004614e93565b6110df565b6040516102599190614f0f565b34801561050157600080fd5b506102ee610510366004614f22565b61117b565b34801561052157600080fd5b50610282610530366004614f7a565b61124f565b34801561054157600080fd5b50610555610550366004614c30565b6112cb565b6040516102599190615092565b34801561056e57600080fd5b506104e861057d366004614ade565b611377565b6102826113f0565b34801561059657600080fd5b50600d546102ee565b3480156105ab57600080fd5b506102ee6105ba3660046150b8565b61142c565b3480156105cb57600080fd5b506102826105da366004614e76565b6114b5565b3480156105eb57600080fd5b506102ee6105fa366004614e76565b6001600160a01b031660009081526004602052604090205490565b6102826115c2565b34801561062957600080fd5b506104e8610638366004614ade565b6115d6565b34801561064957600080fd5b50610282610658366004614f22565b61164d565b34801561066957600080fd5b506102826106783660046150d4565b6117ce565b34801561068957600080fd5b506102ee610698366004615115565b61193d565b3480156106a957600080fd5b506106b26119ff565b6040516102599190615127565b3480156106cb57600080fd5b506102826106da36600461513b565b611a09565b3480156106eb57600080fd5b50600e546102ee565b34801561070057600080fd5b506102be61070f366004614e76565b6001600160a01b031660009081526003602052604090205460ff1690565b34801561073957600080fd5b50610282610748366004615173565b611b1b565b34801561075957600080fd5b5061076d610768366004614ade565b611b9c565b6040516102599190600060a082019050825182526020830151602083015260408301516040830152606083015160608301526080830151608083015292915050565b3480156107bb57600080fd5b506102826107ca366004615190565b611bae565b3480156107db57600080fd5b506102ee6107ea3660046151bc565b611d58565b3480156107fb57600080fd5b5061028261080a366004615190565b611e2e565b34801561081b57600080fd5b5061028261082a36600461520b565b611ef1565b34801561083b57600080fd5b506040516202a3008152602001610259565b34801561085957600080fd5b50610282610868366004614c30565b611f68565b34801561087957600080fd5b506102be610888366004614c30565b61202a565b34801561089957600080fd5b506102826108a8366004614c30565b6120dd565b3480156108b957600080fd5b506102826108c8366004614c30565b6120ea565b3480156108d957600080fd5b506108ed6108e8366004614e76565b61214a565b6040805182518152602080840151908201529181015190820152606001610259565b34801561091b57600080fd5b5061092f61092a36600461522f565b6121b0565b60405161025991906152b6565b61028261094a366004614e76565b6122b5565b61028261095d366004614e76565b6122f2565b34801561096e57600080fd5b5061028261097d366004614c30565b612319565b34801561098e57600080fd5b506102ee61099d366004614e76565b63389a75e1600c908152600091909152602090205490565b6001600160a01b038083166000908152602081815260408083209385168352928152828220835160a08101855281548152600182015492810192909252600281015493820193909352600383015460608201526004909201546080830152908190610a21908590612326565b909590945092505050565b610a3461237d565b610aaa3385858585604051602401610a509594939291906153c6565b60408051601f198184030181529190526020810180516001600160e01b031663e98143ad60e01b1790526001600160a01b037f000000000000000000000000000000000000000000000000000000000000000016906123a6565b5050505050565b610ab96123cb565b80158015610b245750816001600160a01b03166322f3e2d46040518163ffffffff1660e01b8152600401602060405180830381865afa158015610b00573d6000803e3d6000fd5b505050506040513d601f19601f82011682018060405250810190610b249190615429565b15610b425760405163cdd8a30360e01b815260040160405180910390fd5b6001600160a01b03919091166000908152600360205260409020805460ff1916911515919091179055565b6000610b7761237d565b6000828152600b6020908152604091829020825160c08101845281546001600160a01b03908116825260018301541692810183905260028201549381019390935260038101546060840152600481015460808401526005015460ff16151560a0830152610be3906123e6565b610bf58160200151826000015161241f565b6000610c098260200151836000015161244c565b90506000610c1682612493565b9050610c41836020015160008413610c2f576001610c32565b60005b85604001518660a001516124a2565b8083606001511115610c5557606083018190525b6000808313610c65576000610c68565b60015b9050610c7e8460200151878660000151336124cb565b8351602085015160608601516080870151604051600094610d0d94610cb394919390928892919033908b841490602401615446565b60408051601f198184030181529190526020810180516001600160e01b0316637b9db48760e11b1790526001600160a01b037f000000000000000000000000000000000000000000000000000000000000000016906123a6565b9050610d1d856020015183612707565b80806020019051810190610d319190615498565b955050505050505b919050565b60006202a3006001600160401b03164201905063389a75e1600c5233600052806020600c2055337fdbf36a107da19e49527a7176a1babf963b4b0ff8cde35ee35d6cd8f1f9ac7e1d600080a250565b610d956123cb565b610d9e846123e6565b6040516001600160a01b03808616602483015280851660448301528316606482015260848101829052610aaa9060a40160408051601f198184030181529190526020810180516001600160e01b03166312d1045160e11b1790526001600160a01b037f000000000000000000000000000000000000000000000000000000000000000016906123a6565b610e3061237d565b604080516001808252818301909252600091816020015b610e4f6149d1565b815260200190600190039081610e4757505060408051600180825281830190925291925060009190602080830190803683370190505090508282600081518110610e9b57610e9b6154b1565b60200260200101819052508381600081518110610eba57610eba6154b1565b602002602001018181525050610aaa338284604051602401610a5093929190615501565b610ee661237d565b610eef856123e6565b600080866001600160a01b031663db1b5c97338888886040518563ffffffff1660e01b8152600401610f249493929190615537565b60408051808303816000875af1158015610f42573d6000803e3d6000fd5b505050506040513d601f19601f82011682018060405250810190610f66919061559a565b915091508160001461104e578215610fad57610fad6001600160a01b037f00000000000000000000000000000000000000000000000000000000000000001633308661285d565b6110488733610fbc86886155d4565b6040516001600160a01b03938416602482015292909116604483015260648201526084810184905260a4810183905260c40160408051601f198184030181529190526020810180516001600160e01b0316636e6f167560e01b1790526001600160a01b037f000000000000000000000000000000000000000000000000000000000000000016906123a6565b50611082565b6110826001600160a01b037f00000000000000000000000000000000000000000000000000000000000000001633866128b1565b60405133906001600160a01b038916907fd04e6350fe09fd82d32a2e9549de19274bab2fafa4013189498798d981a763e790600090a350505050505050565b60006110d6836110d185856128f7565b612962565b90505b92915050565b60606110e961237d565b600061115d338585604051602401611103939291906155e7565b60408051601f198184030181529190526020810180516001600160e01b0316638b69f89760e01b1790526001600160a01b037f000000000000000000000000000000000000000000000000000000000000000016906123a6565b905080806020019051810190611173919061560c565b949350505050565b600061118561237d565b61118e846123e6565b611198843361241f565b60006111a4853361244c565b905060006111b182612493565b9050808511156111d457604051631eab837160e11b815260040160405180910390fd5b846000036111e757600092505050611248565b60008083136111f75760006111fa565b60015b905060006112213389848a8a6000898e14604051602401610cb39796959493929190615446565b905061122d8883612707565b808060200190518101906112419190615498565b9450505050505b9392505050565b61125761237d565b6112c7338260405160240161126d929190615691565b60408051601f198184030181529190526020810180516001600160e01b0316637d5eb41f60e01b1790526001600160a01b037f000000000000000000000000000000000000000000000000000000000000000016906123a6565b5050565b6112d36149d1565b6000828152600a6020908152604091829020825160e08101845281546001600160a01b039081168252600180840154918216948301949094529093919291840191600160a01b90910460ff169081111561132f5761132f615004565b600181111561134057611340615004565b815260028201546020820152600382015460408201526004820154606082015260059091015460ff16151560809091015292915050565b6001600160a01b0380831660009081526009602090815260408083209385168352928152908290208054835181840281018401909452808452606093928301828280156113e357602002820191906000526020600020905b8154815260200190600101908083116113cf575b5050505050905092915050565b63389a75e1600c523360005260006020600c2055337ffa7b8eab7da67f412cc9575ed43464468f9bfbae89d1675917346ca6d8fe3c92600080a2565b60008061149f833360405160240161144592919061571b565b60408051601f198184030181529190526020810180516001600160e01b0316631da5734360e21b1790526001600160a01b037f000000000000000000000000000000000000000000000000000000000000000016906123a6565b9050808060200190518101906112489190615498565b6114bd61237d565b6114c6816123e6565b6000806000836001600160a01b031663ed83d79c6040518163ffffffff1660e01b81526004016060604051808303816000875af115801561150b573d6000803e3d6000fd5b505050506040513d601f19601f8201168201806040525081019061152f9190615741565b6001600160a01b038716600090815260046020526040902054929550909350915061155a848261576f565b6001600160a01b0386166000818152600460209081526040918290208490558151878152908101869052908101839052919250907fbfed1e6debfebfaef8f787a2e2c506676d0e9e9f06d217ef82d090151af844e89060600160405180910390a25050505050565b6115ca6123cb565b6115d46000612a9f565b565b6001600160a01b0380831660009081526008602090815260408083209385168352928152908290208054835181840281018401909452808452606093928301828280156113e357602002820191906000526020600020908154815260200190600101908083116113cf575050505050905092915050565b604154610100900460ff161580801561166d5750604154600160ff909116105b8061168e575061167c30612acb565b15801561168e575060415460ff166001145b6116f65760405162461bcd60e51b815260206004820152602e60248201527f496e697469616c697a61626c653a20636f6e747261637420697320616c72656160448201526d191e481a5b9a5d1a585b1a5e995960921b60648201526084015b60405180910390fd5b6041805460ff191660011790558015611719576041805461ff0019166101001790555b61176f6001600160a01b037f0000000000000000000000000000000000000000000000000000000000000000167f0000000000000000000000000000000000000000000000000000000000000000600019612ada565b600d839055600e82905561178284612b16565b80156117c8576041805461ff0019169055604051600181527f7f26b83ff96e1f2b6a682f133852f6798a09c465da95921460cefb38474024989060200160405180910390a15b50505050565b6117d661237d565b6117df836123e6565b6000806000856001600160a01b0316631bde66e7866040518263ffffffff1660e01b81526004016118109190615127565b6060604051808303816000875af115801561182f573d6000803e3d6000fd5b505050506040513d601f19601f820116820180604052508101906118539190615741565b92509250925083600014611896576118966001600160a01b037f00000000000000000000000000000000000000000000000000000000000000001633308761285d565b6040516001600160a01b038088166024830152336044830152861660648201526084810184905260a4810183905260c4810182905260e48101859052611934906101040160408051601f198184030181529190526020810180516001600160e01b0316631fe05b1760e11b1790526001600160a01b037f000000000000000000000000000000000000000000000000000000000000000016906123a6565b50505050505050565b600061194761237d565b604080516001808252818301909252600091816020015b6119666149d1565b81526020019060019003908161195e57905050905061198a3684900384018461578f565b8160008151811061199d5761199d6154b1565b602002602001018190525060006119c033836040516024016111039291906157ab565b90506000818060200190518101906119d8919061560c565b9050806000815181106119ed576119ed6154b1565b60200260200101519350505050919050565b638b78c6d8195490565b611a1161237d565b611a1a846123e6565b6000611a2685846128f7565b9050611a328582612962565b611a4f57604051633da1f7d160e11b815260040160405180910390fd5b611a846001600160a01b037f00000000000000000000000000000000000000000000000000000000000000001633308561285d565b6040516001600160a01b038087166024830152841660448201523360648201526084810185905260a48101839052611b139060c40160408051601f198184030181529190526020810180516001600160e01b0316636f70e66f60e01b1790526001600160a01b037f000000000000000000000000000000000000000000000000000000000000000016906123a6565b505050505050565b611b236123cb565b6041805482158015620100000262ff00001990921691909117909155611b6f576040517fed1cd0670ee0c0017f550451a038818c696d0b6a9d6ce5b369e44275573cf9b090600090a150565b6040517f1142a68cc39970640eb3524e77b91f78be21abc64f20f5919387eb46699bb77290600090a15b50565b611ba4614a10565b6110d683836128f7565b611bb661237d565b611bbf826123e6565b6001600160a01b0382166000908152602081815260408083203384528252808320815160a081018352815481526001820154938101849052600282015492810192909252600381015460608301526004015460808201529103611c3557604051631d5fdf4760e11b815260040160405180910390fd5b6000611c548483611c4f86670de0b6b3a763ffff19612b40565b612b92565b90508060400151600014611c7b57604051632c7c1d6360e11b815260040160405180910390fd5b6060808201516020840152815190830152611c968483612c87565b6001600160a01b038085166000908152602081815260408083203380855290835292819020865181559186015160018301558501516002820155606085015160038201556080850151600490910155611d12917f00000000000000000000000000000000000000000000000000000000000000001690856128b1565b60405183815233906001600160a01b038616907fb0fa03f93c852a6feaaeb34ccf4cf865cc223c4cc9d25dce28a9131fde2710719060200160405180910390a350505050565b6000611d6261237d565b611d6b866123e6565b611d75863361241f565b611d898685611d848187612d8a565b612d9f565b6000611e03338888888888604051602401611da9969594939291906157cf565b60408051601f198184030181529190526020810180516001600160e01b03166310faff9560e31b1790526001600160a01b037f000000000000000000000000000000000000000000000000000000000000000016906123a6565b9050611e0f8787612707565b80806020019051810190611e239190615498565b979650505050505050565b611e3661237d565b611e3f826123e6565b611e746001600160a01b037f00000000000000000000000000000000000000000000000000000000000000001633308461285d565b6001600160a01b03821660009081526020818152604080832033845290915281206001018054839290611ea89084906155d4565b909155505060405181815233906001600160a01b038416907f05c2d01f05f37971d15b22586be2f1933a1ae8c0079a056a430b4391550ffb2d9060200160405180910390a35050565b611f63828233604051602401611f0993929190615813565b60408051601f198184030181529190526020810180516001600160e01b03166312fd759760e11b1790526001600160a01b037f000000000000000000000000000000000000000000000000000000000000000016906123a6565b505050565b6000818152600b6020908152604091829020825160c08101845281546001600160a01b0390811680835260018401549091169382019390935260028201549381019390935260038101546060840152600481015460808401526005015460ff16151560a08301523314801590611ff75750611fe16119ff565b6001600160a01b0316336001600160a01b031614155b15612015576040516342f062b760e01b815260040160405180910390fd5b6112c7816020015183836000015160006124cb565b6000818152600b60209081526040808320815160c08101835281546001600160a01b039081168083526001840154909116948201859052600283015493820193909352600382015460608201526004820154608082015260059091015460ff16151560a082015291839161209e91906128f7565b51905060008190036120b4575060009392505050565b6111738260200151600083136120cb5760016120ce565b60005b84604001518560a00151612e34565b6120e56123cb565b600e55565b6120f261237d565b604080516001808252818301909252600091602080830190803683370190505090508181600081518110612128576121286154b1565b602002602001018181525050611f63338260405160240161126d929190615691565b61216e60405180606001604052806000815260200160008152602001600081525090565b506001600160a01b0316600090815260056020908152604091829020825160608101845281548152600182015492810192909252600201549181019190915290565b60606121ba61237d565b6121c3846123e6565b60405163efdb942360e01b81526000906001600160a01b0386169063efdb9423906121f690339088908890600401615841565b6000604051808303816000875af1158015612215573d6000803e3d6000fd5b505050506040513d6000823e601f3d908101601f1916820160405261223d91908101906158a5565b90925090506122776001600160a01b037f00000000000000000000000000000000000000000000000000000000000000001633308461285d565b60405133906001600160a01b038716907f99e877011be95eb42bf6be0d3db080f9a2f0256536d7713ce401a3c971e0527e90600090a3509392505050565b6122bd6123cb565b63389a75e1600c52806000526020600c2080544211156122e557636f5e88186000526004601cfd5b60009055611b9981612a9f565b6122fa6123cb565b8060601b61231057637448fbae6000526004601cfd5b611b9981612a9f565b6123216123cb565b600d55565b600080826000015160000361234057506000905080612376565b61234e848460000151612eec565b915061237361235c8361320b565b612369856040015161320b565b8551600012613224565b90505b9250929050565b60415462010000900460ff166115d457604051637dc579d960e11b815260040160405180910390fd5b60606110d68383604051806060016040528060278152602001615cd260279139613247565b638b78c6d8195433146115d4576382b429006000526004601cfd5b6001600160a01b03811660009081526003602052604090205460ff16611b99576040516304c1bb0360e11b815260040160405180910390fd5b61242982826128f7565b6080015143036112c75760405163fd4b12b160e01b815260040160405180910390fd5b6001600160a01b03808316600090815260208181526040808320938516835292905290812054908190036110d957604051631d5fdf4760e11b815260040160405180910390fd5b60ff81901c6000039081011890565b6124ae84848484612e34565b6117c8576040516315f3d48360e01b815260040160405180910390fd5b6000838152600b6020908152604080832080546001600160a01b031990811682556001820180549091169055600281018490556003810184905560048101849055600501805460ff191690556001600160a01b03858116845260098352818420908816845282528083208054825181850281018501909352808352919290919083018282801561257a57602002820191906000526020600020905b815481526020019060010190808311612566575b50505050509050600081519050806001036125c4576001600160a01b038085166000908152600960209081526040808320938a1683529290529081206125bf91614a3f565b6126b3565b60005b8181101561266757858382815181106125e2576125e26154b1565b60200260200101510361265f57826125fb60018461597f565b8151811061260b5761260b6154b1565b6020908102919091018101516001600160a01b038088166000908152600984526040808220928c1682529190935290912080548390811061264e5761264e6154b1565b600091825260209091200155612667565b6001016125c7565b506001600160a01b038085166000908152600960209081526040808320938a1683529290522080548061269c5761269c615992565b600190038181906000526020600020016000905590555b836001600160a01b0316866001600160a01b0316867f241cba1e62c0c28760eb65132303f670a906fac442064deb7a20da98ce538ed2866040516126f79190615127565b60405180910390a4505050505050565b600d54600081900361271857505050565b6000836001600160a01b031663604096326040518163ffffffff1660e01b8152600401602060405180830381865afa158015612758573d6000803e3d6000fd5b505050506040513d601f19601f8201168201806040525081019061277c9190615498565b90506000846001600160a01b03166358c0994a6040518163ffffffff1660e01b8152600401602060405180830381865afa1580156127be573d6000803e3d6000fd5b505050506040513d601f19601f820116820180604052508101906127e29190615498565b90508360018111156127f6576127f6615004565b818311612804576000612807565b60015b600181111561281857612818615004565b03612824575050505050565b600061283a8361283481856132bf565b906132e7565b905083811115611b135760405163a6dea22360e01b815260040160405180910390fd5b60405181606052826040528360601b602c526323b872dd60601b600c52602060006064601c6000895af13d1560016000511417166128a357637939f4246000526004601cfd5b600060605260405250505050565b816014528060345263a9059cbb60601b60005260206000604460106000875af13d1560016000511417166128ed576390b8ec186000526004601cfd5b6000603452505050565b6128ff614a10565b506001600160a01b03918216600090815260208181526040808320939094168252918252829020825160a0810184528154815260018201549281019290925260028101549282019290925260038201546060820152600490910154608082015290565b80516000908103612975575060006110d9565b60006129ec6129e7856001600160a01b03166346558d1b6040518163ffffffff1660e01b8152600401602060405180830381865afa1580156129bb573d6000803e3d6000fd5b505050506040513d601f19601f820116820180604052508101906129df9190615498565b8551906132fc565b612493565b90506000612a136129fc8361320b565b612a09866040015161320b565b8651600012613224565b90506000612a22868684612b92565b606001519050856001600160a01b0316634f3c15426040518163ffffffff1660e01b8152600401602060405180830381865afa158015612a66573d6000803e3d6000fd5b505050506040513d601f19601f82011682018060405250810190612a8a9190615498565b612a9482856132e7565b109695505050505050565b638b78c6d81980546001600160a01b03909216918290600080516020615cb2833981519152600080a355565b6001600160a01b03163b151590565b816014528060345263095ea7b360601b60005260206000604460106000875af13d1560016000511417166128ed57633e3f8f736000526004601cfd5b6001600160a01b0316638b78c6d819819055806000600080516020615cb28339815191528180a350565b60008082128015612b5757612b54836159a8565b92505b612b72612b6d8585670de0b6b3a7640000613324565b61320b565b91508015612b8b57612b83826159a8565b9150506110d9565b5092915050565b612bbd6040518060800160405280600081526020016000815260200160008152602001600081525090565b6001600160a01b0384166000908152600460205260409020548152825115612c3257825160608401518251612bfc9291612bf6916159c4565b906133d3565b6020820181905260001315612c32576103e88160200151612c1d91906159fa565b81602001818151612c2e91906159c4565b9052505b6000612c41846020015161320b565b6020830151612c5090856159c4565b612c5a919061576f565b905060008112612c705760608201819052612c7f565b612c7981612493565b60408301525b509392505050565b600080612c948484612326565b915091506000612ca7846020015161320b565b90506000808313612cc157612cbc838361576f565b612cc3565b815b90506000612d2c876001600160a01b031663bce2020d6040518163ffffffff1660e01b8152600401602060405180830381865afa158015612d08573d6000803e3d6000fd5b505050506040513d601f19601f82011682018060405250810190612b6d9190615498565b905060008087600001511315612d52576040870151612d4b9083612b40565b9050612d5f565b612d5c8683612b40565b90505b80831215612d805760405163845dfc3960e01b815260040160405180910390fd5b5050505050505050565b60006110d68383670de0b6b3a7640000613324565b6000836001600160a01b031663bce2020d6040518163ffffffff1660e01b8152600401602060405180830381865afa158015612ddf573d6000803e3d6000fd5b505050506040513d601f19601f82011682018060405250810190612e039190615498565b90506000612e1184846132e7565b905081811015610aaa576040516333c44bc760e21b815260040160405180910390fd5b600080856001600160a01b031663604096326040518163ffffffff1660e01b8152600401602060405180830381865afa158015612e75573d6000803e3d6000fd5b505050506040513d601f19601f82011682018060405250810190612e999190615498565b9050600080866001811115612eb057612eb0615004565b03612ecd5783612ec257848211612ec6565b8482105b9050612ee1565b83612eda57848210612ede565b8482115b90505b159695505050505050565b6000612ef6614a5d565b82600003612f085760009150506110d9565b612f1183612493565b60c08201526000808413612f26576001612f29565b60005b905060008413612f3a576001612f3d565b60005b151560e08301526001600160a01b0385168083526040805163270ba3b160e11b81529051634e174762916004808201926020929091908290030181865afa158015612f8c573d6000803e3d6000fd5b505050506040513d601f19601f82011682018060405250810190612fb09190615498565b6020830181905260405163068bcd8d60e01b815260048101919091526001600160a01b0386169063068bcd8d90602401602060405180830381865afa158015612ffd573d6000803e3d6000fd5b505050506040513d601f19601f820116820180604052508101906130219190615a28565b6001600160a01b031663fe17b8e18360e001516040518263ffffffff1660e01b8152600401613054911515815260200190565b608060405180830381865afa158015613071573d6000803e3d6000fd5b505050506040513d601f19601f820116820180604052508101906130959190615a45565b60a086015260808501526060840152604083015260e08201516000906130c5906130c090889061343d565b613585565b905060006130de8460c001518860008760e001516135cd565b9050600060016000896001600160a01b03166001600160a01b03168152602001908152602001600020600085600181111561311b5761311b615004565b600181111561312c5761312c615004565b815260200190815260200160002090508460e00151156131525761314f83615a7b565b92505b60005b8560e0015161316c578260020b8460020b13613176565b8260020b8460020b125b156131cf5760e08601516131919083908690600190156136a3565b909450905080156131b5576131a7868686613860565b60c0810151909650156131cf575b8560e001516131ca576131c784615a7b565b93505b613155565b60c0860151156131f8576131e2866139f7565b86610100018181516131f491906155d4565b9052505b5050506101009092015195945050505050565b6000600160ff1b821061322057613220613c54565b5090565b6000811561323d5761323683856159c4565b9050611248565b61117384846159c4565b6060600080856001600160a01b0316856040516132649190615ac2565b600060405180830381855af49150503d806000811461329f576040519150601f19603f3d011682016040523d82523d6000602084013e6132a4565b606091505b50915091506132b586838387613c62565b9695505050505050565b60006110d66132cd8361320b565b6132d68561320b565b818113818303929091038218021890565b60006110d683670de0b6b3a764000084613324565b60008083128015612b5757613310846159a8565b9350612b72612b6d8585670de0b6b3a76400005b60008383026000198486098181108201900380613359578361334e5763ae47f7026000526004601cfd5b508290049050611248565b80841161336e5763ae47f7026000526004601cfd5b838587096000858103861695869004956003870260029081188089028203028089028203028089028203028089028203028089028203028089029091030291819003819004600101858411909403939093029190930391909104170290509392505050565b60008083128183128082141582156133f1576133ee866159a8565b95505b811561340357613400856159a8565b94505b613419612b6d8787670de0b6b3a7640000613324565b935080156134345761342a846159a8565b93505050506110d9565b50505092915050565b6000826001600160a01b031663604096326040518163ffffffff1660e01b8152600401602060405180830381865afa15801561347d573d6000803e3d6000fd5b505050506040513d601f19601f820116820180604052508101906134a19190615498565b90506000836001600160a01b0316637db3fd696040518163ffffffff1660e01b8152600401602060405180830381865afa1580156134e3573d6000803e3d6000fd5b505050506040513d601f19601f820116820180604052508101906135079190615498565b905060006135158284615ade565b9050612710811161357d5783156135545781613531828561597f565b61353b9190615ade565b60000361354f5761354c818461597f565b92505b61357d565b8161355f82856155d4565b6135699190615ade565b60000361357d5761357a81846155d4565b92505b505092915050565b60006110d96135bf670de0b6b3a764000060606135af6135aa6402540be40088615af2565b613cd9565b6135ba92911b615af2565b613d70565b6001600160a01b0316613d85565b6000821561365c57613655846001600160a01b0316634d85468b846135f35760016135f6565b60005b886040518363ffffffff1660e01b8152600401613614929190615b06565b602060405180830381865afa158015613631573d6000803e3d6000fd5b505050506040513d601f19601f820116820180604052508101906130c09190615498565b9050611173565b61369a846001600160a01b031663f36bdbc98461367a5760006135f6565b6001886040518363ffffffff1660e01b8152600401613614929190615b06565b95945050505050565b600080806136b18587615b1d565b905060008660020b1280156136d157506136cb8587615b57565b60020b15155b156136e457806136e081615a7b565b9150505b8315613791576000806136f6836140bd565b90925090506000600160ff831681901b90613711908261597f565b61371b91906155d4565b600184900b600090815260208c90526040902054811680151596509091508561375b578861374c60ff851687615b79565b6137569190615b9e565b613786565b88613765826140dd565b61376f9085615bbe565b61377c9060ff1687615b79565b6137869190615b9e565b965050505050613856565b6000806137a76137a2846001615bd7565b6140bd565b909250905060006137bf600160ff841681901b61597f565b600184900b600090815260208c90526040902054901990811680151596509091508561381857886137f18460ff615bbe565b60ff166137ff876001615bd7565b6138099190615bd7565b6138139190615b9e565b61384f565b8883613823836141c7565b61382d9190615bbe565b60ff1661383b876001615bd7565b6138459190615bd7565b61384f9190615b9e565b9650505050505b5094509492505050565b613868614a5d565b83516001600160a01b031660009081526002602052604081208185600181111561389457613894615004565b60018111156138a5576138a5615004565b815260200190815260200160002060008460020b60020b8152602001908152602001600020604051806040016040529081600082015481526020016001820180548060200260200160405190810160405280929190818152602001828054801561392e57602002820191906000526020600020905b81548152602001906001019080831161391a575b50505050508152505090506000600a60008360200151600081518110613956576139566154b1565b6020026020010151815260200190815260200160002060020154905061397c86826142f1565b95508560c00151600003613994578592505050611248565b81516000906139a390836132e7565b90508660c001518111156139b8575060c08601515b808760c0018181516139ca919061597f565b9052506139d78183612d8a565b87610100018181516139e991906155d4565b905250959695505050505050565b600080613a268360600151613a206135aa8660a0015187608001516132e790919063ffffffff16565b906132bf565b90506000818460c0015111613a3f578360c00151613a41565b815b90508360c00151811115613a56575060c08301515b808460c001818151613a68919061597f565b90525060e0840151613a91578084606001818151613a8691906155d4565b915081815250613aaa565b8084606001818151613aa3919061597f565b9150818152505b506000613ac8856060015186608001516132e790919063ffffffff16565b9050613ae18560400151826132bf90919063ffffffff16565b93508460c00151600014613c4c578460e00151613b0b576020850180516000190190819052613b19565b602085018051600101908190525b508451602086015160405163068bcd8d60e01b815260048101919091526000916001600160a01b03169063068bcd8d90602401602060405180830381865afa158015613b69573d6000803e3d6000fd5b505050506040513d601f19601f82011682018060405250810190613b8d9190615a28565b90506001600160a01b038116613bb6576040516338b7fdfb60e01b815260040160405180910390fd5b60e086015160405163fe17b8e160e01b815290151560048201526001600160a01b0382169063fe17b8e190602401608060405180830381865afa158015613c01573d6000803e3d6000fd5b505050506040513d601f19601f82011682018060405250810190613c259190615a45565b60a08a0152608089015260608801526040870152613c42866139f7565b6132b590866155d4565b505050919050565b6335278d126000526004601cfd5b60608315613ccf578251600003613cc857613c7c85612acb565b613cc85760405162461bcd60e51b815260206004820152601d60248201527f416464726573733a2063616c6c20746f206e6f6e2d636f6e747261637400000060448201526064016116ed565b5081611173565b611173838361459a565b60006110d9613cf083670de0b6b3a7640000615bfc565b6001600160881b03811160071b81811c6001600160481b031060061b1781811c64ffffffffff1060051b1781811c62ffffff1060041b1781811c620100000160b5600192831c1b0260121c80830401811c80830401811c80830401811c80830401811c80830401811c80830401811c80830401901c908190048111900390565b6000600160a01b821061322057613220613c54565b60006401000276a36001600160a01b03831610801590613dc1575073fffd8963efd1fc6a506488495d951d5263988d266001600160a01b038316105b613df15760405162461bcd60e51b81526020600482015260016024820152602960f91b60448201526064016116ed565b600160201b600160c01b03602083901b166001600160801b03811160071b81811c6001600160401b03811160061b90811c63ffffffff811160051b90811c61ffff811160041b90811c60ff8111600390811b91821c600f811160021b90811c918211600190811b92831c97908811961790941790921717909117171760808110613e8a57613e80607f8261597f565b83901c9150613e9b565b613e9581607f61597f565b83901b91505b60006040613eaa6080846159c4565b901b9050828302607f1c92508260801c80603f1b8217915083811c935050828302607f1c92508260801c80603e1b8217915083811c935050828302607f1c92508260801c80603d1b8217915083811c935050828302607f1c92508260801c80603c1b8217915083811c935050828302607f1c92508260801c80603b1b8217915083811c935050828302607f1c92508260801c80603a1b8217915083811c935050828302607f1c92508260801c8060391b8217915083811c935050828302607f1c92508260801c8060381b8217915083811c935050828302607f1c92508260801c8060371b8217915083811c935050828302607f1c92508260801c8060361b8217915083811c935050828302607f1c92508260801c8060351b8217915083811c935050828302607f1c92508260801c8060341b8217915083811c935050828302607f1c92508260801c8060331b8217915083811c935050828302607f1c92508260801c8060321b8217915050600081693627a301d71055774c8561402d9190615c13565b90506000608061404d6f028f6481ab7f045a5af012a19d003aaa846159c4565b901d90506000608061406f846fdb2df09e81959a81455e260799a0632f61576f565b901d90508060020b8260020b146140ae57886001600160a01b0316614093826145c4565b6001600160a01b031611156140a857816140b0565b806140b0565b815b9998505050505050505050565b600281900b60081d60006140d361010084615b57565b60020b9050915091565b60008082116140eb57600080fd5b600160801b821061410957608091821c916141069082615c43565b90505b600160401b821061412757604091821c916141249082615c43565b90505b600160201b821061414557602091821c916141429082615c43565b90505b62010000821061416257601091821c9161415f9082615c43565b90505b610100821061417e57600891821c9161417b9082615c43565b90505b6010821061419957600491821c916141969082615c43565b90505b600482106141b457600291821c916141b19082615c43565b90505b60028210610d39576110d9600182615c43565b60008082116141d557600080fd5b5060ff6001600160801b038216156141f9576141f2608082615bbe565b9050614201565b608082901c91505b6001600160401b038216156142225761421b604082615bbe565b905061422a565b604082901c91505b63ffffffff82161561424857614241602082615bbe565b9050614250565b602082901c91505b61ffff82161561426c57614265601082615bbe565b9050614274565b601082901c91505b60ff82161561428f57614288600882615bbe565b9050614297565b600882901c91505b600f8216156142b2576142ab600482615bbe565b90506142ba565b600482901c91505b60038216156142d5576142ce600282615bbe565b90506142dd565b600282901c91505b6001821615610d39576110d9600182615bbe565b6142f9614a5d565b60008360e00151614310578360a001518311614318565b8360a0015183105b1561432457508161432b565b5060a08301515b600061434f8560600151613a206135aa8589608001516132e790919063ffffffff16565b9050806000036143635784925050506110d9565b8460c00151811115614376575060c08401515b808560c001818151614388919061597f565b90525060e08501516143b15780856060018181516143a691906155d4565b9150818152506143ca565b80856060018181516143c3919061597f565b9150818152505b5060006143e8866060015187608001516132e790919063ffffffff16565b90506144018660400151826132bf90919063ffffffff16565b866101000181815161441391906155d4565b90525060c086015160000361442d578593505050506110d9565b60408601819052848303614446578593505050506110d9565b8560e00151614462576020860180516000190190819052614470565b602086018051600101908190525b508551602087015160405163068bcd8d60e01b815260048101919091526000916001600160a01b03169063068bcd8d90602401602060405180830381865afa1580156144c0573d6000803e3d6000fd5b505050506040513d601f19601f820116820180604052508101906144e49190615a28565b90506001600160a01b03811661450d576040516338b7fdfb60e01b815260040160405180910390fd5b60e087015160405163fe17b8e160e01b815290151560048201526001600160a01b0382169063fe17b8e190602401608060405180830381865afa158015614558573d6000803e3d6000fd5b505050506040513d601f19601f8201168201806040525081019061457c9190615a45565b60a08b015260808a015260608901526040880152611e2387876142f1565b8151156145aa5781518083602001fd5b8060405162461bcd60e51b81526004016116ed9190615c5c565b60008060008360020b126145db578260020b6145e8565b8260020b6145e8906159a8565b90506145f7620d89e719615c8f565b60020b81111561462d5760405162461bcd60e51b81526020600482015260016024820152601560fa1b60448201526064016116ed565b60008160011660000361464457600160801b614656565b6ffffcb933bd6fad37aa2d162d1a5940015b6001600160881b03169050600282161561468b576080614686826ffff97272373d413259a46990580e213a615bfc565b901c90505b60048216156146b55760806146b0826ffff2e50f5f656932ef12357cf3c7fdcc615bfc565b901c90505b60088216156146df5760806146da826fffe5caca7e10e4e61c3624eaa0941cd0615bfc565b901c90505b6010821615614709576080614704826fffcb9843d60f6159c9db58835c926644615bfc565b901c90505b602082161561473357608061472e826fff973b41fa98c081472e6896dfb254c0615bfc565b901c90505b604082161561475d576080614758826fff2ea16466c96a3843ec78b326b52861615bfc565b901c90505b6080821615614787576080614782826ffe5dee046a99a2a811c461f1969c3053615bfc565b901c90505b6101008216156147b25760806147ad826ffcbe86c7900a88aedcffc83b479aa3a4615bfc565b901c90505b6102008216156147dd5760806147d8826ff987a7253ac413176f2b074cf7815e54615bfc565b901c90505b610400821615614808576080614803826ff3392b0822b70005940c7a398e4b70f3615bfc565b901c90505b61080082161561483357608061482e826fe7159475a2c29b7443b29c7fa6e889d9615bfc565b901c90505b61100082161561485e576080614859826fd097f3bdfd2022b8845ad8f792aa5825615bfc565b901c90505b612000821615614889576080614884826fa9f746462d870fdf8a65dc1f90e061e5615bfc565b901c90505b6140008216156148b45760806148af826f70d869a156d2a1b890bb3df62baf32f7615bfc565b901c90505b6180008216156148df5760806148da826f31be135f97d08fd981231505542fcfa6615bfc565b901c90505b6201000082161561490b576080614906826f09aa508b5b7a84e1c677de54f3e99bc9615bfc565b901c90505b62020000821615614936576080614931826e5d6af8dedb81196699c329225ee604615bfc565b901c90505b6204000082161561496057608061495b826d2216e584f5fa1ea926041bedfe98615bfc565b901c90505b62080000821615614988576080614983826b048a170391f7dc42444e8fa2615bfc565b901c90505b60008460020b13156149a3576149a081600019615af2565b90505b6149b1600160201b82615ade565b156149bd5760016149c0565b60005b6111739060ff16602083901c6155d4565b6040805160e081018252600080825260208201819052909182019081526020016000815260200160008152602001600081526020016000151581525090565b6040518060a0016040528060008152602001600081526020016000815260200160008152602001600081525090565b5080546000825590600052602060002090810190611b999190614ab4565b60405180610120016040528060006001600160a01b03168152602001600081526020016000815260200160008152602001600081526020016000815260200160008152602001600015158152602001600081525090565b5b808211156132205760008155600101614ab5565b6001600160a01b0381168114611b9957600080fd5b60008060408385031215614af157600080fd5b8235614afc81614ac9565b91506020830135614b0c81614ac9565b809150509250929050565b60008083601f840112614b2957600080fd5b5081356001600160401b03811115614b4057600080fd5b60208301915083602060e08302850101111561237657600080fd5b60008060008060408587031215614b7157600080fd5b84356001600160401b0380821115614b8857600080fd5b818701915087601f830112614b9c57600080fd5b813581811115614bab57600080fd5b8860208260051b8501011115614bc057600080fd5b602092830196509450908601359080821115614bdb57600080fd5b50614be887828801614b17565b95989497509550505050565b8015158114611b9957600080fd5b60008060408385031215614c1557600080fd5b8235614c2081614ac9565b91506020830135614b0c81614bf4565b600060208284031215614c4257600080fd5b5035919050565b60008060008060808587031215614c5f57600080fd5b8435614c6a81614ac9565b93506020850135614c7a81614ac9565b92506040850135614c8a81614ac9565b9396929550929360600135925050565b634e487b7160e01b600052604160045260246000fd5b604051608081016001600160401b0381118282101715614cd257614cd2614c9a565b60405290565b604051601f8201601f191681016001600160401b0381118282101715614d0057614d00614c9a565b604052919050565b803560028110610d3957600080fd5b600060e08284031215614d2957600080fd5b60405160e081016001600160401b0381118282101715614d4b57614d4b614c9a565b6040529050808235614d5c81614ac9565b81526020830135614d6c81614ac9565b6020820152614d7d60408401614d08565b6040820152606083013560608201526080830135608082015260a083013560a082015260c0830135614dae81614bf4565b60c0919091015292915050565b6000806101008385031215614dcf57600080fd5b823591506123738460208501614d17565b600080600080600060808688031215614df857600080fd5b8535614e0381614ac9565b945060208601356001600160401b0380821115614e1f57600080fd5b818801915088601f830112614e3357600080fd5b813581811115614e4257600080fd5b8960208260061b8501011115614e5757600080fd5b9699602092909201985095966040810135965060600135945092505050565b600060208284031215614e8857600080fd5b813561124881614ac9565b60008060208385031215614ea657600080fd5b82356001600160401b03811115614ebc57600080fd5b614ec885828601614b17565b90969095509350505050565b600081518084526020808501945080840160005b83811015614f0457815187529582019590820190600101614ee8565b509495945050505050565b6020815260006110d66020830184614ed4565b600080600060608486031215614f3757600080fd5b8335614f4281614ac9565b95602085013595506040909401359392505050565b60006001600160401b03821115614f7057614f70614c9a565b5060051b60200190565b60006020808385031215614f8d57600080fd5b82356001600160401b03811115614fa357600080fd5b8301601f81018513614fb457600080fd5b8035614fc7614fc282614f57565b614cd8565b81815260059190911b82018301908381019087831115614fe657600080fd5b928401925b82841015611e2357833582529284019290840190614feb565b634e487b7160e01b600052602160045260246000fd5b60028110611b9957634e487b7160e01b600052602160045260246000fd5b80516001600160a01b0390811683526020808301519091169083015260408101516150628161501a565b6040830152606081810151908301526080808201519083015260a0808201519083015260c0908101511515910152565b60e081016110d98284615038565b600060c082840312156150b257600080fd5b50919050565b600060c082840312156150ca57600080fd5b6110d683836150a0565b6000806000606084860312156150e957600080fd5b83356150f481614ac9565b9250602084013561510481614ac9565b929592945050506040919091013590565b600060e082840312156150b257600080fd5b6001600160a01b0391909116815260200190565b6000806000806080858703121561515157600080fd5b843561515c81614ac9565b9350602085013592506040850135614c8a81614ac9565b60006020828403121561518557600080fd5b813561124881614bf4565b600080604083850312156151a357600080fd5b82356151ae81614ac9565b946020939093013593505050565b600080600080600060a086880312156151d457600080fd5b85356151df81614ac9565b94506151ed60208701614d08565b94979496505050506040830135926060810135926080909101359150565b60008060e0838503121561521e57600080fd5b8235915061237384602085016150a0565b60008060006040848603121561524457600080fd5b833561524f81614ac9565b925060208401356001600160401b038082111561526b57600080fd5b818601915086601f83011261527f57600080fd5b81358181111561528e57600080fd5b8760206060830285010111156152a357600080fd5b6020830194508093505050509250925092565b602080825282518282018190526000919060409081850190868401855b8281101561531657815180516001600160a01b031685528681015187860152858101518686015260609081015190850152608090930192908501906001016152d3565b5091979650505050505050565b8183526000602080850194508260005b85811015614f0457813561534681614ac9565b6001600160a01b039081168852828401359061536182614ac9565b16878401526040615373838201614d08565b61537c8161501a565b90880152606082810135908801526080808301359088015260a0808301359088015260c0808301356153ad81614bf4565b15159088015260e0968701969190910190600101615333565b6001600160a01b0386168152606060208201819052810184905260006001600160fb1b038511156153f657600080fd5b8460051b8087608085013782018281036080908101604085015261541d9082018587615323565b98975050505050505050565b60006020828403121561543b57600080fd5b815161124881614bf4565b6001600160a01b038881168252878116602083015260e08201906154698861501a565b87604084015286606084015285608084015280851660a08401525082151560c083015298975050505050505050565b6000602082840312156154aa57600080fd5b5051919050565b634e487b7160e01b600052603260045260246000fd5b600081518084526020808501945080840160005b83811015614f04576154ee878351615038565b60e09690960195908201906001016154db565b6001600160a01b038416815260606020820181905260009061552590830185614ed4565b82810360408401526132b581856154c7565b6001600160a01b038516815260606020808301829052908201849052600090859060808401835b87811015615584578335825282840135838301526040938401939091019060010161555e565b5080935050505082604083015295945050505050565b600080604083850312156155ad57600080fd5b505080516020909101519092909150565b634e487b7160e01b600052601160045260246000fd5b808201808211156110d9576110d96155be565b6001600160a01b038416815260406020820181905260009061369a9083018486615323565b6000602080838503121561561f57600080fd5b82516001600160401b0381111561563557600080fd5b8301601f8101851361564657600080fd5b8051615654614fc282614f57565b81815260059190911b8201830190838101908783111561567357600080fd5b928401925b82841015611e2357835182529284019290840190615678565b6001600160a01b038316815260406020820181905260009061117390830184614ed4565b80356156c081614ac9565b6001600160a01b0390811683526020820135906156dc82614ac9565b16602083015260408181013590830152606080820135908301526080808201359083015260a081013561570e81614bf4565b80151560a0840152505050565b60e0810161572982856156b5565b6001600160a01b039290921660c09190910152919050565b60008060006060848603121561575657600080fd5b8351925060208401519150604084015190509250925092565b808201828112600083128015821682158216171561357d5761357d6155be565b600060e082840312156157a157600080fd5b6110d68383614d17565b6001600160a01b0383168152604060208201819052600090611173908301846154c7565b6001600160a01b0387811682528616602082015260c081016157f08661501a565b8560408301528460608301528360808301528260a0830152979650505050505050565b838152610100810161582860208301856156b5565b6001600160a01b039290921660e0919091015292915050565b6001600160a01b0384168152604060208083018290528282018490526000919060609081850187855b88811015615896578135835283820135848401528582013586840152918401919084019060010161586a565b50909998505050505050505050565b60008060408084860312156158b957600080fd5b83516001600160401b038111156158cf57600080fd5b8401601f810186136158e057600080fd5b805160206158f0614fc283614f57565b82815260079290921b8301810191818101908984111561590f57600080fd5b938201935b8385101561596d576080858b03121561592d5760008081fd5b615935614cb0565b855161594081614ac9565b81528584015184820152868601518782015260608087015190820152825260809094019390820190615914565b97909101519698969750505050505050565b818103818111156110d9576110d96155be565b634e487b7160e01b600052603160045260246000fd5b6000600160ff1b82016159bd576159bd6155be565b5060000390565b8181036000831280158383131683831282161715612b8b57612b8b6155be565b634e487b7160e01b600052601260045260246000fd5b600082615a0957615a096159e4565b600160ff1b821460001984141615615a2357615a236155be565b500590565b600060208284031215615a3a57600080fd5b815161124881614ac9565b60008060008060808587031215615a5b57600080fd5b505082516020840151604085015160609095015191969095509092509050565b60008160020b627fffff198103615a9457615a946155be565b6000190192915050565b60005b83811015615ab9578181015183820152602001615aa1565b50506000910152565b60008251615ad4818460208701615a9e565b9190910192915050565b600082615aed57615aed6159e4565b500690565b600082615b0157615b016159e4565b500490565b60408101615b138461501a565b9281526020015290565b60008160020b8360020b80615b3457615b346159e4565b627fffff19821460001982141615615b4e57615b4e6155be565b90059392505050565b60008260020b80615b6a57615b6a6159e4565b808360020b0791505092915050565b600282810b9082900b03627fffff198112627fffff821317156110d9576110d96155be565b60008260020b8260020b028060020b9150808214612b8b57612b8b6155be565b60ff82811682821603908111156110d9576110d96155be565b600281810b9083900b01627fffff8113627fffff19821217156110d9576110d96155be565b80820281158282048414176110d9576110d96155be565b80820260008212600160ff1b84141615615c2f57615c2f6155be565b81810583148215176110d9576110d96155be565b60ff81811683821601908111156110d9576110d96155be565b6020815260008251806020840152615c7b816040850160208701615a9e565b601f01601f19169190910160400192915050565b60008160020b627fffff198103615ca857615ca86155be565b6000039291505056fe8be0079c531659141344cd1fd0a4f28419497f9722a3daafe3b4186f6b6457e0416464726573733a206c6f772d6c6576656c2064656c65676174652063616c6c206661696c6564a26469706673582212209931f82debff7eb8f4d917a5f2e69f97bc64144ac761b2b88016af6749c1cacd64736f6c63430008130033",
    "linkReferences": {}
  },
  "methodIdentifiers": {
    "addLiquidity(address,(uint256,uint256,uint256)[])": "efdb9423",
    "addMargin(address,uint256)": "cf70cb69",
    "cancelOwnershipHandover()": "54d1f13d",
    "closePosition(address,uint256,uint256)": "4fa9c4db",
    "closePositionKeeper(uint256)": "23c16e22",
    "completeOwnershipHandover(address)": "f04e283e",
    "createLimitOrder((address,address,uint8,uint256,uint256,uint256,bool))": "7eb02406",
    "createLimitOrderBatch((address,address,uint8,uint256,uint256,uint256,bool)[])": "4a6ebce7",
    "createTriggerOrder((address,address,uint256,uint256,uint256,bool))": "68d85297",
    "deleteLimitOrder(uint256)": "e859f372",
    "deleteLimitOrderBatch(uint256[])": "517237a9",
    "deleteTriggerOrder(uint256)": "da8c7e40",
    "deleverage(address,address,address,uint256)": "25a208a2",
    "getCumulativePremiumFraction(address)": "6ea41e40",
    "getDivergenceCap()": "5ac3b62d",
    "getLimitOrder(uint256)": "53061026",
    "getMinOrderbookMargin()": "987362da",
    "getOpenInterestNotional(address)": "429e9237",
    "getPosition(address,address)": "b33dc190",
    "getPositionNotionalUpnl(address,address)": "0e86a08d",
    "getReduceOnlyOrders(address,address)": "73af0205",
    "getTotalPositionSize(address)": "e980e16e",
    "getTriggerOrder(uint256)": "36cef3d9",
    "getTriggerOrders(address,address)": "54b85a3e",
    "getValidAMM(address)": "9dda4e4f",
    "initialize(address,uint256,uint256)": "7a1ac61e",
    "isActive()": "22f3e2d4",
    "isLiquidatable(address,address)": "3966a28b",
    "isTriggerOrderValid(uint256)": "dd2a65ed",
    "liquidate(address,uint256,address,uint256)": "9457be23",
    "liquidateMaker(address,address,uint256)": "7aefce97",
    "openPosition(address,uint8,uint256,uint256,uint256)": "cbb50e61",
    "owner()": "8da5cb5b",
    "ownershipHandoverExpiresAt(address)": "fee81cf4",
    "ownershipHandoverValidFor()": "d7533f02",
    "removeLiquidity(address,(uint256,uint256)[],uint256,uint256)": "2e2c3f3f",
    "removeMargin(address,uint256)": "b959d695",
    "renounceOwnership()": "715018a6",
    "requestOwnershipHandover()": "25692962",
    "setActive(bool)": "acec338a",
    "setDivergenceCap(uint256)": "f8b6e449",
    "setMinOrderbookMargin(uint256)": "e3046770",
    "setValidAMM(address,bool)": "207b5b6f",
    "settleFunding(address)": "6b17ad03",
    "transferOwnership(address)": "f2fde38b",
    "updateLimitOrder(uint256,(address,address,uint8,uint256,uint256,uint256,bool))": "2a120de4",
    "updateLimitOrderBatch(uint256[],(address,address,uint8,uint256,uint256,uint256,bool)[])": "13dee2d1",
    "updateTriggerOrder(uint256,(address,address,uint256,uint256,uint256,bool))": "d2435052"
  },
  "id": 46
}